{
  "contractName": "DoubleOrNothing",
  "abi": [
    {
      "constant": true,
      "inputs": [],
      "name": "owner",
      "outputs": [
        {
          "name": "",
          "type": "address"
        }
      ],
      "payable": false,
      "stateMutability": "view",
      "type": "function"
    },
    {
      "inputs": [],
      "payable": false,
      "stateMutability": "nonpayable",
      "type": "constructor"
    },
    {
      "payable": true,
      "stateMutability": "payable",
      "type": "fallback"
    },
    {
      "anonymous": false,
      "inputs": [
        {
          "indexed": false,
          "name": "player",
          "type": "address"
        },
        {
          "indexed": false,
          "name": "winnings",
          "type": "uint256"
        }
      ],
      "name": "BetSettled",
      "type": "event"
    },
    {
      "constant": false,
      "inputs": [],
      "name": "bet",
      "outputs": [],
      "payable": true,
      "stateMutability": "payable",
      "type": "function"
    },
    {
      "constant": false,
      "inputs": [
        {
          "name": "_amount",
          "type": "uint256"
        }
      ],
      "name": "withdraw",
      "outputs": [],
      "payable": false,
      "stateMutability": "nonpayable",
      "type": "function"
    }
  ],
  "bytecode": "0x608060405234801561001057600080fd5b50336000806101000a81548173ffffffffffffffffffffffffffffffffffffffff021916908373ffffffffffffffffffffffffffffffffffffffff160217905550610446806100606000396000f300608060405260043610610057576000357c0100000000000000000000000000000000000000000000000000000000900463ffffffff16806311610c25146100595780632e1a7d4d146100635780638da5cb5b14610090575b005b6100616100e7565b005b34801561006f57600080fd5b5061008e60048036038101908080359060200190929190505050610258565b005b34801561009c57600080fd5b506100a56103f5565b604051808273ffffffffffffffffffffffffffffffffffffffff1673ffffffffffffffffffffffffffffffffffffffff16815260200191505060405180910390f35b60003073ffffffffffffffffffffffffffffffffffffffff1631600234021115151561017b576040517f08c379a00000000000000000000000000000000000000000000000000000000081526004018080602001828103825260108152602001807f42616c616e636520746f6f206c6f77210000000000000000000000000000000081525060200191505060405180910390fd5b600090506000600260014303406001900481151561019557fe5b0614156101ea576002340290503373ffffffffffffffffffffffffffffffffffffffff166108fc829081150290604051600060405180830381858888f193505050501580156101e8573d6000803e3d6000fd5b505b7fe8be3977225bba6c803ee86dd4d929b28ff6108d8ac5c08a6b6ffb8c6002bedb3382604051808373ffffffffffffffffffffffffffffffffffffffff1673ffffffffffffffffffffffffffffffffffffffff1681526020018281526020019250505060405180910390a150565b6000809054906101000a900473ffffffffffffffffffffffffffffffffffffffff1673ffffffffffffffffffffffffffffffffffffffff163373ffffffffffffffffffffffffffffffffffffffff1614151561031c576040517f08c379a000000000000000000000000000000000000000000000000000000000815260040180806020018281038252601e8152602001807f4f6e6c79206f776e657220616c6c6f77656420746f207769746864726177000081525060200191505060405180910390fd5b3073ffffffffffffffffffffffffffffffffffffffff163181111515156103ab576040517f08c379a00000000000000000000000000000000000000000000000000000000081526004018080602001828103825260108152602001807f42616c616e636520746f6f206c6f77210000000000000000000000000000000081525060200191505060405180910390fd5b3373ffffffffffffffffffffffffffffffffffffffff166108fc829081150290604051600060405180830381858888f193505050501580156103f1573d6000803e3d6000fd5b5050565b6000809054906101000a900473ffffffffffffffffffffffffffffffffffffffff16815600a165627a7a72305820feb542a9befc278182cdb4c4e455621514bf3c70181fdd5a0897ba6326424ef50029",
  "source": "pragma solidity 0.4.25;\n\ncontract DoubleOrNothing {\n  address public owner;\n\n  event BetSettled(address player, uint256 winnings);\n\n  constructor() public {\n    owner = msg.sender;\n  }\n\n  function() external payable {}\n\n  function bet() payable external {\n    // msg.value is added to the balance to begin with so you need to double it\n    require(msg.value * 2 <= address(this).balance, 'Balance too low!');\n    uint256 winnings = 0;\n\n    // DO NOT USE THIS IN PRODUCTION, ITS INSECURE\n    if(uint256(blockhash(block.number -1)) % 2 == 0) {\n      winnings = msg.value * 2;\n      address(msg.sender).transfer(winnings);\n    }\n\n    emit BetSettled(msg.sender, winnings);\n  }\n\n  function withdraw(uint256 _amount) external {\n    require(msg.sender == owner, 'Only owner allowed to withdraw');\n    require(_amount <= address(this).balance, 'Balance too low!');\n    address(msg.sender).transfer(_amount);\n  }\n\n}\n",
  "sourcePath": "/Users/yjiang/git/test/DoubleOrNothing/smart-contracts/contracts/DoubleOrNothing.sol",
  "compiler": {
    "name": "solc",
    "version": "0.4.25+commit.59dbf8f1.Emscripten.clang"
  },
  "schemaVersion": "3.0.10",
  "updatedAt": "2019-06-11T17:19:04.799Z",
  "devdoc": {
    "methods": {}
  },
  "userdoc": {
    "methods": {}
  }
}