{
  "contractName": "DoubleOrNothing",
  "abi": [
    {
      "constant": true,
      "inputs": [
        {
          "name": "data",
          "type": "uint256[]"
        }
      ],
      "name": "sum",
      "outputs": [
        {
          "name": "",
          "type": "uint256"
        }
      ],
      "payable": false,
      "stateMutability": "pure",
      "type": "function"
    },
    {
      "constant": true,
      "inputs": [
        {
          "name": "addr",
          "type": "address"
        }
      ],
      "name": "hasReferrer",
      "outputs": [
        {
          "name": "",
          "type": "bool"
        }
      ],
      "payable": false,
      "stateMutability": "view",
      "type": "function"
    },
    {
      "constant": false,
      "inputs": [
        {
          "name": "_secondsUntilInactive",
          "type": "uint256"
        }
      ],
      "name": "setSecondsUntilInactive",
      "outputs": [],
      "payable": false,
      "stateMutability": "nonpayable",
      "type": "function"
    },
    {
      "constant": true,
      "inputs": [],
      "name": "getTime",
      "outputs": [
        {
          "name": "",
          "type": "uint256"
        }
      ],
      "payable": false,
      "stateMutability": "view",
      "type": "function"
    },
    {
      "constant": true,
      "inputs": [
        {
          "name": "",
          "type": "address"
        }
      ],
      "name": "accounts",
      "outputs": [
        {
          "name": "referrer",
          "type": "address"
        },
        {
          "name": "reward",
          "type": "uint256"
        },
        {
          "name": "referredCount",
          "type": "uint256"
        },
        {
          "name": "lastActiveTimestamp",
          "type": "uint256"
        }
      ],
      "payable": false,
      "stateMutability": "view",
      "type": "function"
    },
    {
      "constant": false,
      "inputs": [],
      "name": "renounceOwnership",
      "outputs": [],
      "payable": false,
      "stateMutability": "nonpayable",
      "type": "function"
    },
    {
      "constant": true,
      "inputs": [
        {
          "name": "amount",
          "type": "uint256"
        }
      ],
      "name": "getRefereeBonusRate",
      "outputs": [
        {
          "name": "",
          "type": "uint256"
        }
      ],
      "payable": false,
      "stateMutability": "view",
      "type": "function"
    },
    {
      "constant": true,
      "inputs": [],
      "name": "owner",
      "outputs": [
        {
          "name": "",
          "type": "address"
        }
      ],
      "payable": false,
      "stateMutability": "view",
      "type": "function"
    },
    {
      "constant": true,
      "inputs": [],
      "name": "isOwner",
      "outputs": [
        {
          "name": "",
          "type": "bool"
        }
      ],
      "payable": false,
      "stateMutability": "view",
      "type": "function"
    },
    {
      "constant": false,
      "inputs": [
        {
          "name": "_onlyRewardActiveReferrers",
          "type": "bool"
        }
      ],
      "name": "setOnlyRewardAActiveReferrers",
      "outputs": [],
      "payable": false,
      "stateMutability": "nonpayable",
      "type": "function"
    },
    {
      "constant": false,
      "inputs": [
        {
          "name": "newOwner",
          "type": "address"
        }
      ],
      "name": "transferOwnership",
      "outputs": [],
      "payable": false,
      "stateMutability": "nonpayable",
      "type": "function"
    },
    {
      "inputs": [
        {
          "name": "_decimals",
          "type": "uint256"
        },
        {
          "name": "_referralBonus",
          "type": "uint256"
        },
        {
          "name": "_secondsUntilInactive",
          "type": "uint256"
        },
        {
          "name": "_onlyRewardActiveReferrers",
          "type": "bool"
        },
        {
          "name": "_levelRate",
          "type": "uint256[]"
        },
        {
          "name": "_refereeBonusRateMap",
          "type": "uint256[]"
        },
        {
          "name": "_tokenAddresses",
          "type": "address[]"
        },
        {
          "name": "_randomNumberContractAddress",
          "type": "address"
        }
      ],
      "payable": false,
      "stateMutability": "nonpayable",
      "type": "constructor"
    },
    {
      "payable": true,
      "stateMutability": "payable",
      "type": "fallback"
    },
    {
      "anonymous": false,
      "inputs": [
        {
          "indexed": false,
          "name": "player",
          "type": "address"
        },
        {
          "indexed": false,
          "name": "winnings",
          "type": "uint256"
        }
      ],
      "name": "BetSettled",
      "type": "event"
    },
    {
      "anonymous": false,
      "inputs": [
        {
          "indexed": false,
          "name": "referee",
          "type": "address"
        },
        {
          "indexed": false,
          "name": "referrer",
          "type": "address"
        }
      ],
      "name": "RegisteredReferer",
      "type": "event"
    },
    {
      "anonymous": false,
      "inputs": [
        {
          "indexed": false,
          "name": "referee",
          "type": "address"
        },
        {
          "indexed": false,
          "name": "referrer",
          "type": "address"
        },
        {
          "indexed": false,
          "name": "reason",
          "type": "string"
        }
      ],
      "name": "RegisteredRefererFailed",
      "type": "event"
    },
    {
      "anonymous": false,
      "inputs": [
        {
          "indexed": false,
          "name": "from",
          "type": "address"
        },
        {
          "indexed": false,
          "name": "to",
          "type": "address"
        },
        {
          "indexed": false,
          "name": "amount",
          "type": "uint256"
        },
        {
          "indexed": false,
          "name": "level",
          "type": "uint256"
        }
      ],
      "name": "PaidReferral",
      "type": "event"
    },
    {
      "anonymous": false,
      "inputs": [
        {
          "indexed": false,
          "name": "user",
          "type": "address"
        },
        {
          "indexed": false,
          "name": "timestamp",
          "type": "uint256"
        }
      ],
      "name": "UpdatedUserLastActiveTime",
      "type": "event"
    },
    {
      "anonymous": false,
      "inputs": [
        {
          "indexed": true,
          "name": "previousOwner",
          "type": "address"
        },
        {
          "indexed": true,
          "name": "newOwner",
          "type": "address"
        }
      ],
      "name": "OwnershipTransferred",
      "type": "event"
    },
    {
      "constant": false,
      "inputs": [
        {
          "name": "_tokenAddress",
          "type": "address"
        }
      ],
      "name": "addToken",
      "outputs": [],
      "payable": false,
      "stateMutability": "nonpayable",
      "type": "function"
    },
    {
      "constant": false,
      "inputs": [
        {
          "name": "_tokenAddress",
          "type": "address"
        }
      ],
      "name": "deleteToken",
      "outputs": [],
      "payable": false,
      "stateMutability": "nonpayable",
      "type": "function"
    },
    {
      "constant": false,
      "inputs": [
        {
          "name": "_referrer",
          "type": "address"
        }
      ],
      "name": "bet",
      "outputs": [],
      "payable": true,
      "stateMutability": "payable",
      "type": "function"
    },
    {
      "constant": false,
      "inputs": [],
      "name": "bet",
      "outputs": [],
      "payable": true,
      "stateMutability": "payable",
      "type": "function"
    },
    {
      "constant": false,
      "inputs": [
        {
          "name": "",
          "type": "address"
        },
        {
          "name": "_value",
          "type": "uint256"
        },
        {
          "name": "_data",
          "type": "bytes"
        }
      ],
      "name": "onTokenTransfer",
      "outputs": [
        {
          "name": "",
          "type": "bool"
        }
      ],
      "payable": false,
      "stateMutability": "nonpayable",
      "type": "function"
    },
    {
      "constant": false,
      "inputs": [
        {
          "name": "_amount",
          "type": "uint256"
        }
      ],
      "name": "withdraw",
      "outputs": [],
      "payable": false,
      "stateMutability": "nonpayable",
      "type": "function"
    },
    {
      "constant": false,
      "inputs": [
        {
          "name": "_tokenAddress",
          "type": "address"
        },
        {
          "name": "_amount",
          "type": "uint256"
        }
      ],
      "name": "withdrawTokens",
      "outputs": [],
      "payable": false,
      "stateMutability": "nonpayable",
      "type": "function"
    }
  ],
  "bytecode": "0x60806040523480156200001157600080fd5b50604051620026b8380380620026b883398101806040526101008110156200003857600080fd5b8151602083015160408401516060850151608086018051949693959294919392830192916401000000008111156200006f57600080fd5b820160208101848111156200008357600080fd5b8151856020820283011164010000000082111715620000a157600080fd5b50509291906020018051640100000000811115620000be57600080fd5b82016020810184811115620000d257600080fd5b8151856020820283011164010000000082111715620000f057600080fd5b505092919060200180516401000000008111156200010d57600080fd5b820160208101848111156200012157600080fd5b81518560208202830111640100000000821117156200013f57600080fd5b505060209091015160008054600160a060020a03191633178082556040519395509193508a928a928a928a928a928a92600160a060020a0391909116917f8be0079c531659141344cd1fd0a4f28419497f9722a3daafe3b4186f6b6457e0908290a381516000106200023857604080517f08c379a000000000000000000000000000000000000000000000000000000000815260206004820152602560248201527f526566657272616c206c6576656c2073686f756c64206265206174206c65617360448201527f74206f6e65000000000000000000000000000000000000000000000000000000606482015290519081900360840190fd5b815160031015620002d057604080517f08c379a000000000000000000000000000000000000000000000000000000000815260206004820152602160248201527f4578636565646564206d617820726566657272616c206c6576656c206465707460448201527f6800000000000000000000000000000000000000000000000000000000000000606482015290519081900360840190fd5b8051600116156200038e57604080517f08c379a000000000000000000000000000000000000000000000000000000000815260206004820152604760248201527f5265666572656520426f6e75732052617465204d61702073686f756c6420626560448201527f2070617373206173205b3c6c6f77657220616d6f756e743e2c203c726174653e60648201527f2c202e2e2e2e5d00000000000000000000000000000000000000000000000000608482015290519081900360a40190fd5b80516003906002900411156200042b57604080517f08c379a000000000000000000000000000000000000000000000000000000000815260206004820152602760248201527f4578636565646564206d617820726566657272656520626f6e7573206c65766560448201527f6c20646570746800000000000000000000000000000000000000000000000000606482015290519081900360840190fd5b858511156200049b57604080517f08c379a000000000000000000000000000000000000000000000000000000000815260206004820152601b60248201527f526566657272616c20626f6e7573206578636565647320313030250000000000604482015290519081900360640190fd5b85620004b083640100000000620007d7810204565b11156200051e57604080517f08c379a000000000000000000000000000000000000000000000000000000000815260206004820152601d60248201527f546f74616c206c6576656c207261746520657863656564732031303025000000604482015290519081900360640190fd5b6004869055600385905560058490556006805460ff1916841515179055815162000550906002906020850190620008c5565b5080511515620005d8576040805180820190915260018082526004546020830190815260078054928301815560005291517fa66cc928b5edb82af9bd49922954155ab7b0942694bea4ce44661d9a8736c68860029092029182015590517fa66cc928b5edb82af9bd49922954155ab7b0942694bea4ce44661d9a8736c6899091015562000715565b60005b815181101562000713576004548282600101815181101515620005fa57fe5b9060200190602002015111156200069857604080517f08c379a000000000000000000000000000000000000000000000000000000000815260206004820152602660248201527f4f6e65206f66207265666572656520626f6e757320726174652065786365656460448201527f7320313030250000000000000000000000000000000000000000000000000000606482015290519081900360840190fd5b600760408051908101604052808484815181101515620006b457fe5b9060200190602002015181526020018484600101815181101515620006d557fe5b6020908102909101810151909152825460018181018555600094855293829020835160029283029091019081559290910151919092015501620005db565b505b5060009450505050505b8251811015620007a85760086200075d84838151811015156200073e57fe5b9060200190602002015162000815640100000000026401000000009004565b815460018181018455600093845260209384902083516002909302018054600160a060020a03909316600160a060020a0319909316929092178255929091015190820155016200071f565b5060098054600160a060020a031916600160a060020a0392909216919091179055506200094c95505050505050565b60008060005b83518110156200080e578381815181101515620007f657fe5b602090810290910101519190910190600101620007dd565b5092915050565b6200081f62000915565b604080518082018252600160a060020a03841680825282517f70a0823100000000000000000000000000000000000000000000000000000000815230600482015292518593602080850193926370a08231926024808201939291829003018186803b1580156200088e57600080fd5b505afa158015620008a3573d6000803e3d6000fd5b505050506040513d6020811015620008ba57600080fd5b505190529392505050565b82805482825590600052602060002090810192821562000903579160200282015b8281111562000903578251825591602001919060010190620008e6565b50620009119291506200092c565b5090565b604080518082019091526000808252602082015290565b6200094991905b8082111562000911576000815560010162000933565b90565b611d5c806200095c6000396000f3fe6080604052600436106100fb5763ffffffff7c01000000000000000000000000000000000000000000000000000000006000350416630194db8e81146100fd5780630474a68e146101bf57806306b091f9146101e557806311610c251461021e57806318452cd8146102265780632e1a7d4d1461026d578063447e78f514610297578063557ed1ba146102c15780635e5c06e2146102d6578063715018a614610339578063878926291461034e5780638da5cb5b146103785780638f32d59b146103a9578063a4c0ed36146103be578063d48bfca714610450578063db1058a914610483578063f069f712146104af578063f2fde38b146104e2575b005b34801561010957600080fd5b506101ad6004803603602081101561012057600080fd5b81019060208101813564010000000081111561013b57600080fd5b82018360208201111561014d57600080fd5b8035906020019184602083028401116401000000008311171561016f57600080fd5b919080806020026020016040519081016040528093929190818152602001838360200280828437600092019190915250929550610515945050505050565b60408051918252519081900360200190f35b6100fb600480360360208110156101d557600080fd5b5035600160a060020a0316610552565b3480156101f157600080fd5b506100fb6004803603604081101561020857600080fd5b50600160a060020a038135169060200135610577565b6100fb610764565b34801561023257600080fd5b506102596004803603602081101561024957600080fd5b5035600160a060020a03166108ed565b604080519115158252519081900360200190f35b34801561027957600080fd5b506100fb6004803603602081101561029057600080fd5b503561090d565b3480156102a357600080fd5b506100fb600480360360208110156102ba57600080fd5b50356109fa565b3480156102cd57600080fd5b506101ad610a4b565b3480156102e257600080fd5b50610309600480360360208110156102f957600080fd5b5035600160a060020a0316610a4f565b60408051600160a060020a0390951685526020850193909352838301919091526060830152519081900360800190f35b34801561034557600080fd5b506100fb610a83565b34801561035a57600080fd5b506101ad6004803603602081101561037157600080fd5b5035610b26565b34801561038457600080fd5b5061038d610bb5565b60408051600160a060020a039092168252519081900360200190f35b3480156103b557600080fd5b50610259610bc4565b3480156103ca57600080fd5b50610259600480360360608110156103e157600080fd5b600160a060020a038235169160208101359181019060608101604082013564010000000081111561041157600080fd5b82018360208201111561042357600080fd5b8035906020019184600183028401116401000000008311171561044557600080fd5b509092509050610bd5565b34801561045c57600080fd5b506100fb6004803603602081101561047357600080fd5b5035600160a060020a0316610d22565b34801561048f57600080fd5b506100fb600480360360208110156104a657600080fd5b50351515610e8f565b3480156104bb57600080fd5b506100fb600480360360208110156104d257600080fd5b5035600160a060020a0316610eee565b3480156104ee57600080fd5b506100fb6004803603602081101561050557600080fd5b5035600160a060020a031661107c565b60008060005b835181101561054957838181518110151561053257fe5b60209081029091010151919091019060010161051b565b5090505b919050565b61055b336108ed565b151561056c5761056a816110d1565b505b610574610764565b50565b61057f610bc4565b15156105c3576040805160e560020a62461bcd0281526020600482018190526024820152600080516020611d11833981519152604482015290519081900360640190fd5b60006105ce8361138a565b80546040805160e060020a6370a082310281523060048201529051929350600092600160a060020a03909216916370a0823191602480820192602092909190829003018186803b15801561062157600080fd5b505afa158015610635573d6000803e3d6000fd5b505050506040513d602081101561064b57600080fd5b50519050808311156106a7576040805160e560020a62461bcd02815260206004820152601660248201527f546f6b656e2062616c616e636520746f6f206c6f772100000000000000000000604482015290519081900360640190fd5b8154600160a060020a031663a9059cbb6106bf610bb5565b856040518363ffffffff167c01000000000000000000000000000000000000000000000000000000000281526004018083600160a060020a0316600160a060020a0316815260200182815260200192505050602060405180830381600087803b15801561072b57600080fd5b505af115801561073f573d6000803e3d6000fd5b505050506040513d602081101561075557600080fd5b50509190910360019091015550565b30316002340211156107c0576040805160e560020a62461bcd02815260206004820152601060248201527f42616c616e636520746f6f206c6f772100000000000000000000000000000000604482015290519081900360640190fd5b3332146107cc57600080fd5b600954604080517f3b3dca760000000000000000000000000000000000000000000000000000000081529051600092600292600160a060020a0390911691633b3dca769160048082019260209290919082900301818887803b15801561083157600080fd5b505af1158015610845573d6000803e3d6000fd5b505050506040513d602081101561085b57600080fd5b505181151561086657fe5b0615156108a5575060405160643460c502049033906108fc8315029083906000818181858888f193505050501580156108a3573d6000803e3d6000fd5b505b6108ae3461144e565b50604080513381526020810183905281517fe8be3977225bba6c803ee86dd4d929b28ff6108d8ac5c08a6b6ffb8c6002bedb929181900390910190a150565b600160a060020a0390811660009081526001602052604090205416151590565b610915610bc4565b1515610959576040805160e560020a62461bcd0281526020600482018190526024820152600080516020611d11833981519152604482015290519081900360640190fd5b30318111156109b2576040805160e560020a62461bcd02815260206004820152601060248201527f42616c616e636520746f6f206c6f772100000000000000000000000000000000604482015290519081900360640190fd5b60006109bc610bb5565b604051909150600160a060020a0382169083156108fc029084906000818181858888f193505050501580156109f5573d6000803e3d6000fd5b505050565b610a02610bc4565b1515610a46576040805160e560020a62461bcd0281526020600482018190526024820152600080516020611d11833981519152604482015290519081900360640190fd5b600555565b4290565b60016020819052600091825260409091208054918101546002820154600390920154600160a060020a039093169290919084565b610a8b610bc4565b1515610acf576040805160e560020a62461bcd0281526020600482018190526024820152600080516020611d11833981519152604482015290519081900360640190fd5b60008054604051600160a060020a03909116907f8be0079c531659141344cd1fd0a4f28419497f9722a3daafe3b4186f6b6457e0908390a36000805473ffffffffffffffffffffffffffffffffffffffff19169055565b60008060076000815481101515610b3957fe5b90600052602060002090600202016001015490506000600190505b600754811015610549576007805482908110610b6c57fe5b906000526020600020906002020160000154841015610b8a57610549565b6007805482908110610b9857fe5b600091825260209091206001600290920201810154925001610b54565b600054600160a060020a031690565b600054600160a060020a0316331490565b600080610be13361138a565b80546040805160e060020a6370a082310281523060048201529051929350600092600160a060020a03909216916370a0823191602480820192602092909190829003018186803b158015610c3457600080fd5b505afa158015610c48573d6000803e3d6000fd5b505050506040513d6020811015610c5e57600080fd5b50519050831515610c755760018201819055610d15565b60018201548103861115610cf9576040805160e560020a62461bcd02815260206004820152602481018290527f6f6e546f6b656e5472616e73666572207761732063616c6c656420627574206e60448201527f6f2062616c616e636520696e637265617365207761732064657465637465642e606482015290519081900360840190fd5b600182018190558154610d1590600160a060020a0316876116a7565b5060019695505050505050565b610d2a610bc4565b1515610d6e576040805160e560020a62461bcd0281526020600482018190526024820152600080516020611d11833981519152604482015290519081900360640190fd5b60005b600854811015610e325781600160a060020a0316600882815481101515610d9457fe5b6000918252602090912060029091020154600160a060020a03161415610e2a576040805160e560020a62461bcd02815260206004820152603160248201527f4120746f6b656e2077697468207468652070726f76696465642061646472657360448201527f7320616c7265616479206578697374732e000000000000000000000000000000606482015290519081900360840190fd5b600101610d71565b506008610e3e826118f7565b81546001808201845560009384526020938490208351600290930201805473ffffffffffffffffffffffffffffffffffffffff1916600160a060020a03909316929092178255919092015191015550565b610e97610bc4565b1515610edb576040805160e560020a62461bcd0281526020600482018190526024820152600080516020611d11833981519152604482015290519081900360640190fd5b6006805460ff1916911515919091179055565b610ef6610bc4565b1515610f3a576040805160e560020a62461bcd0281526020600482018190526024820152600080516020611d11833981519152604482015290519081900360640190fd5b60005b6008548110156110055781600160a060020a0316600882815481101515610f6057fe5b6000918252602090912060029091020154600160a060020a03161415610ffd57600880546000198101919082908110610f9557fe5b9060005260206000209060020201600883815481101515610fb257fe5b600091825260209091208254600290920201805473ffffffffffffffffffffffffffffffffffffffff1916600160a060020a0390921691909117815560019182015491015550611005565b600101610f3d565b506040805160e560020a62461bcd02815260206004820152602660248201527f546f6b656e20746172676574656420666f722064656c6574696f6e206e6f742060448201527f666f756e642e0000000000000000000000000000000000000000000000000000606482015290519081900360840190fd5b611084610bc4565b15156110c8576040805160e560020a62461bcd0281526020600482018190526024820152600080516020611d11833981519152604482015290519081900360640190fd5b6105748161198c565b6000600160a060020a03821615156111615760408051338152600160a060020a03841660208201526060818301819052601e908201527f52656665727265722063616e6e6f742062652030783020616464726573730000608082015290517f63a04625ee50186097257e079ace9a312982f1976bdffa769db82a83c2ffc0069181900360a00190a150600061054d565b61116b8233611a7a565b156112145760408051338152600160a060020a038416602082015260608183018190526029908201527f526566657265652063616e6e6f74206265206f6e65206f66207265666572726560808201527f722075706c696e6573000000000000000000000000000000000000000000000060a082015290517f63a04625ee50186097257e079ace9a312982f1976bdffa769db82a83c2ffc0069181900360c00190a150600061054d565b33600090815260016020526040902054600160a060020a0316156112d65760408051338152600160a060020a038416602082015260608183018190526023908201527f416464726573732068617665206265656e20726567697374657265642075706c60808201527f696e65000000000000000000000000000000000000000000000000000000000060a082015290517f63a04625ee50186097257e079ace9a312982f1976bdffa769db82a83c2ffc0069181900360c00190a150600061054d565b33600090815260016020526040808220600160a060020a03851680845291909220825473ffffffffffffffffffffffffffffffffffffffff1916909117825561131d610a4b565b6003830155600281015461133890600163ffffffff611af716565b600282015560408051338152600160a060020a038616602082015281517ffaf63637882ff2d63ca76881cf92fb857130e36f350c926f9cc884b499b42b77929181900390910190a15060019392505050565b6000805b6008548110156113fd5782600160a060020a03166008828154811015156113b157fe5b6000918252602090912060029091020154600160a060020a031614156113f55760088054829081106113df57fe5b906000526020600020906002020191505061054d565b60010161138e565b506040805160e560020a62461bcd02815260206004820152601060248201527f546f6b656e206e6f7420666f756e642e00000000000000000000000000000000604482015290519081900360640190fd5b6000611458611cc7565b5033600090815260016020818152604080842081516080810183528154600160a060020a03168152938101549284019290925260028201549083015260030154606082015290805b600254811015611696578251600160a060020a03811660008181526001602052604090209015156114d2575050611696565b60065460ff16801561150157506114e7610a4b565b60055460038301546114fe9163ffffffff611af716565b10155b8061150f575060065460ff16155b1561164f57600061153d6004546115316003548b611b5490919063ffffffff16565b9063ffffffff611bf016565b905061157160045461153160028781548110151561155757fe5b906000526020600020015484611b5490919063ffffffff16565b90506115966004546115316115898560020154610b26565b849063ffffffff611b5416565b90506115a8858263ffffffff611af716565b60018301549095506115c0908263ffffffff611af716565b6001830155604051600160a060020a0384169082156108fc029083906000818181858888f193505050501580156115fb573d6000803e3d6000fd5b5060408051338152600160a060020a038516602082015280820183905260018601606082015290517f3eb64e24c53fdbac5e2f9a92ef0865a35f6777db50dd26bc5d3f813e7ec44d059181900360800190a1505b604080516080810182528254600160a060020a03168152600180840154602083015260028401549282019290925260039092015460608301529094509190910190506114a0565b506116a033611c5f565b9392505050565b6040805160e060020a6370a082310281523060048201529051600160a060020a038416916370a08231916024808301926020929190829003018186803b1580156116f057600080fd5b505afa158015611704573d6000803e3d6000fd5b505050506040513d602081101561171a57600080fd5b5051600282021115611776576040805160e560020a62461bcd02815260206004820152601960248201527f436f6e74726163742062616c616e636520746f6f206c6f772100000000000000604482015290519081900360640190fd5b600954604080517f3b3dca760000000000000000000000000000000000000000000000000000000081529051600092600292600160a060020a0390911691633b3dca769160048082019260209290919082900301818887803b1580156117db57600080fd5b505af11580156117ef573d6000803e3d6000fd5b505050506040513d602081101561180557600080fd5b505181151561181057fe5b0615156118b75750604080517fa9059cbb00000000000000000000000000000000000000000000000000000000815232600482015260028302602482018190529151600160a060020a0385169163a9059cbb9161c350916044808201926020929091908290030181600088803b15801561188957600080fd5b5087f115801561189d573d6000803e3d6000fd5b50505050506040513d60208110156118b457600080fd5b50505b604080513281526020810183905281517fe8be3977225bba6c803ee86dd4d929b28ff6108d8ac5c08a6b6ffb8c6002bedb929181900390910190a1505050565b6118ff611cf9565b604080518082018252600160a060020a038416808252825160e060020a6370a0823102815230600482015292518593602080850193926370a08231926024808201939291829003018186803b15801561195757600080fd5b505afa15801561196b573d6000803e3d6000fd5b505050506040513d602081101561198157600080fd5b505190529392505050565b600160a060020a0381161515611a12576040805160e560020a62461bcd02815260206004820152602660248201527f4f776e61626c653a206e6577206f776e657220697320746865207a65726f206160448201527f6464726573730000000000000000000000000000000000000000000000000000606482015290519081900360840190fd5b60008054604051600160a060020a03808516939216917f8be0079c531659141344cd1fd0a4f28419497f9722a3daafe3b4186f6b6457e091a36000805473ffffffffffffffffffffffffffffffffffffffff1916600160a060020a0392909216919091179055565b600082815b600254811015611aea57600160a060020a0382161515611a9e57611aea565b83600160a060020a031682600160a060020a03161415611ac357600192505050611af1565b600160a060020a039182166000908152600160208190526040909120549092169101611a7f565b5060009150505b92915050565b6000828201838110156116a0576040805160e560020a62461bcd02815260206004820152601b60248201527f536166654d6174683a206164646974696f6e206f766572666c6f770000000000604482015290519081900360640190fd5b6000821515611b6557506000611af1565b828202828482811515611b7457fe5b04146116a0576040805160e560020a62461bcd02815260206004820152602160248201527f536166654d6174683a206d756c7469706c69636174696f6e206f766572666c6f60448201527f7700000000000000000000000000000000000000000000000000000000000000606482015290519081900360840190fd5b6000808211611c49576040805160e560020a62461bcd02815260206004820152601a60248201527f536166654d6174683a206469766973696f6e206279207a65726f000000000000604482015290519081900360640190fd5b60008284811515611c5657fe5b04949350505050565b6000611c69610a4b565b600160a060020a0383166000818152600160209081526040918290206003018490558151928352820183905280519293507f0186c8486ec4ff89359fec8af5f6a89cbdbaa26a8e9fe4bb2f15eb86b8513cb892918290030190a15050565b6080604051908101604052806000600160a060020a031681526020016000815260200160008152602001600081525090565b60408051808201909152600080825260208201529056fe4f776e61626c653a2063616c6c6572206973206e6f7420746865206f776e6572a165627a7a7230582070c982e57b0eebd0d32eeb5e04fee27b95abaf6e48a7cf9035636f2fae87bcab0029",
  "source": "pragma solidity 0.5.0;\n\nimport '@thundercore/referral-solidity/contracts/Referral.sol';\nimport \"openzeppelin-solidity/contracts/ownership/Ownable.sol\";\nimport \"openzeppelin-solidity/contracts/token/ERC20/ERC20.sol\";\nimport \"./ERC677Interface.sol\";\nimport \"./ThunderRandomLibraryInterface.sol\";\n\ncontract DoubleOrNothing is Ownable, Referral, ERC677Receiver {\n\n    TokenData[] internal tokens;\n    ThunderRandomLibraryInterface internal RNGLibrary;\n    struct TokenData {\n        IBurnableMintableERC677Token instance;\n        uint256 lastBalance; // Don't trust this; see onTokenTransfer\n    }\n\n    event BetSettled(address player, uint256 winnings);\n\n    constructor(\n        uint _decimals,\n        uint _referralBonus,\n        uint _secondsUntilInactive,\n        bool _onlyRewardActiveReferrers,\n        uint256[] memory _levelRate,\n        uint256[] memory _refereeBonusRateMap,\n        address[] memory _tokenAddresses,\n        address _randomNumberContractAddress\n    ) Referral(\n        _decimals,\n        _referralBonus,\n        _secondsUntilInactive,\n        _onlyRewardActiveReferrers,\n        _levelRate,\n        _refereeBonusRateMap\n    ) public {\n        for (uint i = 0; i < _tokenAddresses.length; i++) {\n            tokens.push(generateTokenData(_tokenAddresses[i]));\n        }\n        RNGLibrary = ThunderRandomLibraryInterface(_randomNumberContractAddress);\n    }\n\n    function generateTokenData(address _tokenAddress) internal view returns (TokenData memory) {\n        IBurnableMintableERC677Token token = IBurnableMintableERC677Token(_tokenAddress);\n        return TokenData(token, token.balanceOf(address(this)));\n    }\n\n    // Return a TokenData value passed by reference so we can modify it directly.\n    function getToken(address _tokenAddress) internal view returns (TokenData storage) {\n        for (uint i = 0; i < tokens.length; i++) {\n            if (address(tokens[i].instance) == _tokenAddress) {\n                return tokens[i];\n            }\n        }\n        revert(\"Token not found.\");\n    }\n\n    function addToken(address _tokenAddress) external onlyOwner {\n        for (uint i = 0; i < tokens.length; i++) {\n            if (address(tokens[i].instance) == _tokenAddress) {\n                revert('A token with the provided address already exists.');\n            }\n        }\n        tokens.push(generateTokenData(_tokenAddress));\n    }\n\n    function deleteToken(address _tokenAddress) external onlyOwner {\n        for (uint i = 0; i < tokens.length; i++) {\n            if (address(tokens[i].instance) == _tokenAddress) {\n                uint256 lastIdx = tokens.length - 1;\n                tokens[i] = tokens[lastIdx];\n                delete lastIdx;\n                break;\n            }\n        }\n        revert('Token targeted for deletion not found.');\n    }\n\n    function bet(address payable _referrer) payable external {\n        if(!hasReferrer(msg.sender)) {\n            addReferrer(_referrer);\n        }\n        bet();\n    }\n\n    // value transfer tx based bet.\n    function bet() payable public {\n        // msg.value is added to the balance to begin with so you need to double it\n        require(msg.value * 2 <= address(this).balance, 'Balance too low!');\n\n        // prevent \"revert txn unless I won\" attacks, see\n        // https://developers.thundercore.com/docs/random-number-generator/\n        require(msg.sender == tx.origin);\n\n        uint256 winnings = 0;\n\n        if(RNGLibrary.rand() % 2 == 0) {\n            // 3% is deducted to cover the referral bonus\n            winnings = msg.value * 197/100;\n            address(msg.sender).transfer(winnings);\n        }\n\n        payReferral(msg.value);\n        emit BetSettled(msg.sender, winnings);\n    }\n\n    // This function handles ERC677 token bets.\n    // This function does _not_ pay out referral bonuses.\n    function betTokens(IBurnableMintableERC677Token _token, uint256 _amount) internal {\n        // The smart contract needs to be able to pay double the value sent.\n        require(_amount * 2 <= _token.balanceOf(address(this)), 'Contract balance too low!');\n\n        uint256 winnings = 0;\n\n        if(RNGLibrary.rand()  % 2 == 0) {\n            winnings = _amount * 2;\n\n            // This transaction can fail due to not enough gas being sent\n            // with the call, so we specify the amount of gas to forward.\n            _token.transfer.gas(50000)(tx.origin, winnings);\n        }\n\n        emit BetSettled(tx.origin, winnings);\n    }\n\n    // With no data sent, the contract token balance is simply updated.\n    // Any data provided indicates that a user wants to make a bet.\n    function onTokenTransfer(address /*_from*/, uint _value, bytes calldata _data) external returns(bool) {\n        TokenData storage token = getToken(msg.sender);\n        uint256 updatedBalance = token.instance.balanceOf(address(this));\n\n        if (_data.length == 0) {\n            token.lastBalance = updatedBalance;\n        } else {\n            // It doesn't matter if the current stored `lastTokenBalance` is correct.\n            // The balance increase needs to be _at least_ as much as the\n            // stated _value.\n            require(updatedBalance - token.lastBalance >= _value, \"onTokenTransfer was called but no balance increase was detected.\");\n            token.lastBalance = updatedBalance;\n            betTokens(token.instance, _value);\n        }\n        return true;\n    }\n\n    function withdraw(uint256 _amount) external onlyOwner {\n        require(_amount <= address(this).balance, 'Balance too low!');\n        address payable owner = address(uint160(owner()));\n        owner.transfer(_amount);\n    }\n\n    function withdrawTokens(address _tokenAddress, uint256 _amount) external onlyOwner {\n        TokenData storage token = getToken(_tokenAddress);\n        uint256 currentTokenBalance = token.instance.balanceOf(address(this));\n\n        require(_amount <= currentTokenBalance, 'Token balance too low!');\n\n        token.instance.transfer(owner(), _amount);\n        token.lastBalance = currentTokenBalance - _amount;\n    }\n\n    // This fallback function eats all funds and gas sent to it.\n    // The owner can withdraw from the contract balance via `withdraw` above.\n    function() external payable {}\n}\n",
  "sourcePath": "/home/scottt/git/tt/DoubleOrNothing/smart-contracts/contracts/DoubleOrNothing.sol",
  "compiler": {
    "name": "solc",
    "version": "0.5.0+commit.1d4f565a.Emscripten.clang"
  },
  "schemaVersion": "3.1.0",
  "updatedAt": "2020-05-07T13:32:41.327Z",
  "networkType": "ethereum",
  "devdoc": {
    "methods": {
      "getRefereeBonusRate(uint256)": {
        "details": "Given a user amount to calc in which rate period",
        "params": {
          "amount": "The number of referrees"
        }
      },
      "getTime()": {
        "details": "Get block timestamp with function for testing mock"
      },
      "hasReferrer(address)": {
        "details": "Utils function for check whether an address has the referrer"
      },
      "isOwner()": {
        "details": "Returns true if the caller is the current owner."
      },
      "owner()": {
        "details": "Returns the address of the current owner."
      },
      "renounceOwnership()": {
        "details": "Leaves the contract without owner. It will not be possible to call `onlyOwner` functions anymore. Can only be called by the current owner.     * > Note: Renouncing ownership will leave the contract without an owner, thereby removing any functionality that is only available to the owner."
      },
      "transferOwnership(address)": {
        "details": "Transfers ownership of the contract to a new account (`newOwner`). Can only be called by the current owner."
      }
    }
  },
  "userdoc": {
    "methods": {}
  }
}