{
  "contractName": "DoubleOrNothing",
  "abi": [
    {
      "constant": true,
      "inputs": [
        {
          "name": "data",
          "type": "uint256[]"
        }
      ],
      "name": "sum",
      "outputs": [
        {
          "name": "",
          "type": "uint256"
        }
      ],
      "payable": false,
      "stateMutability": "pure",
      "type": "function"
    },
    {
      "constant": true,
      "inputs": [
        {
          "name": "addr",
          "type": "address"
        }
      ],
      "name": "hasReferrer",
      "outputs": [
        {
          "name": "",
          "type": "bool"
        }
      ],
      "payable": false,
      "stateMutability": "view",
      "type": "function"
    },
    {
      "constant": false,
      "inputs": [
        {
          "name": "_secondsUntilInactive",
          "type": "uint256"
        }
      ],
      "name": "setSecondsUntilInactive",
      "outputs": [],
      "payable": false,
      "stateMutability": "nonpayable",
      "type": "function"
    },
    {
      "constant": true,
      "inputs": [],
      "name": "getTime",
      "outputs": [
        {
          "name": "",
          "type": "uint256"
        }
      ],
      "payable": false,
      "stateMutability": "view",
      "type": "function"
    },
    {
      "constant": true,
      "inputs": [
        {
          "name": "",
          "type": "address"
        }
      ],
      "name": "accounts",
      "outputs": [
        {
          "name": "referrer",
          "type": "address"
        },
        {
          "name": "reward",
          "type": "uint256"
        },
        {
          "name": "referredCount",
          "type": "uint256"
        },
        {
          "name": "lastActiveTimestamp",
          "type": "uint256"
        }
      ],
      "payable": false,
      "stateMutability": "view",
      "type": "function"
    },
    {
      "constant": false,
      "inputs": [],
      "name": "renounceOwnership",
      "outputs": [],
      "payable": false,
      "stateMutability": "nonpayable",
      "type": "function"
    },
    {
      "constant": true,
      "inputs": [
        {
          "name": "amount",
          "type": "uint256"
        }
      ],
      "name": "getRefereeBonusRate",
      "outputs": [
        {
          "name": "",
          "type": "uint256"
        }
      ],
      "payable": false,
      "stateMutability": "view",
      "type": "function"
    },
    {
      "constant": true,
      "inputs": [],
      "name": "owner",
      "outputs": [
        {
          "name": "",
          "type": "address"
        }
      ],
      "payable": false,
      "stateMutability": "view",
      "type": "function"
    },
    {
      "constant": true,
      "inputs": [],
      "name": "isOwner",
      "outputs": [
        {
          "name": "",
          "type": "bool"
        }
      ],
      "payable": false,
      "stateMutability": "view",
      "type": "function"
    },
    {
      "constant": false,
      "inputs": [
        {
          "name": "_onlyRewardActiveReferrers",
          "type": "bool"
        }
      ],
      "name": "setOnlyRewardAActiveReferrers",
      "outputs": [],
      "payable": false,
      "stateMutability": "nonpayable",
      "type": "function"
    },
    {
      "constant": false,
      "inputs": [
        {
          "name": "newOwner",
          "type": "address"
        }
      ],
      "name": "transferOwnership",
      "outputs": [],
      "payable": false,
      "stateMutability": "nonpayable",
      "type": "function"
    },
    {
      "inputs": [
        {
          "name": "_decimals",
          "type": "uint256"
        },
        {
          "name": "_referralBonus",
          "type": "uint256"
        },
        {
          "name": "_secondsUntilInactive",
          "type": "uint256"
        },
        {
          "name": "_onlyRewardActiveReferrers",
          "type": "bool"
        },
        {
          "name": "_levelRate",
          "type": "uint256[]"
        },
        {
          "name": "_refereeBonusRateMap",
          "type": "uint256[]"
        },
        {
          "name": "_tokenAddresses",
          "type": "address[]"
        },
        {
          "name": "_randomNumberContractAddress",
          "type": "address"
        }
      ],
      "payable": false,
      "stateMutability": "nonpayable",
      "type": "constructor"
    },
    {
      "payable": true,
      "stateMutability": "payable",
      "type": "fallback"
    },
    {
      "anonymous": false,
      "inputs": [
        {
          "indexed": false,
          "name": "player",
          "type": "address"
        },
        {
          "indexed": false,
          "name": "winnings",
          "type": "uint256"
        }
      ],
      "name": "BetSettled",
      "type": "event"
    },
    {
      "anonymous": false,
      "inputs": [
        {
          "indexed": false,
          "name": "referee",
          "type": "address"
        },
        {
          "indexed": false,
          "name": "referrer",
          "type": "address"
        }
      ],
      "name": "RegisteredReferer",
      "type": "event"
    },
    {
      "anonymous": false,
      "inputs": [
        {
          "indexed": false,
          "name": "referee",
          "type": "address"
        },
        {
          "indexed": false,
          "name": "referrer",
          "type": "address"
        },
        {
          "indexed": false,
          "name": "reason",
          "type": "string"
        }
      ],
      "name": "RegisteredRefererFailed",
      "type": "event"
    },
    {
      "anonymous": false,
      "inputs": [
        {
          "indexed": false,
          "name": "from",
          "type": "address"
        },
        {
          "indexed": false,
          "name": "to",
          "type": "address"
        },
        {
          "indexed": false,
          "name": "amount",
          "type": "uint256"
        },
        {
          "indexed": false,
          "name": "level",
          "type": "uint256"
        }
      ],
      "name": "PaidReferral",
      "type": "event"
    },
    {
      "anonymous": false,
      "inputs": [
        {
          "indexed": false,
          "name": "user",
          "type": "address"
        },
        {
          "indexed": false,
          "name": "timestamp",
          "type": "uint256"
        }
      ],
      "name": "UpdatedUserLastActiveTime",
      "type": "event"
    },
    {
      "anonymous": false,
      "inputs": [
        {
          "indexed": true,
          "name": "previousOwner",
          "type": "address"
        },
        {
          "indexed": true,
          "name": "newOwner",
          "type": "address"
        }
      ],
      "name": "OwnershipTransferred",
      "type": "event"
    },
    {
      "constant": false,
      "inputs": [
        {
          "name": "_tokenAddress",
          "type": "address"
        }
      ],
      "name": "addToken",
      "outputs": [],
      "payable": false,
      "stateMutability": "nonpayable",
      "type": "function"
    },
    {
      "constant": false,
      "inputs": [
        {
          "name": "_tokenAddress",
          "type": "address"
        }
      ],
      "name": "deleteToken",
      "outputs": [],
      "payable": false,
      "stateMutability": "nonpayable",
      "type": "function"
    },
    {
      "constant": false,
      "inputs": [
        {
          "name": "_referrer",
          "type": "address"
        }
      ],
      "name": "bet",
      "outputs": [],
      "payable": true,
      "stateMutability": "payable",
      "type": "function"
    },
    {
      "constant": false,
      "inputs": [],
      "name": "bet",
      "outputs": [],
      "payable": true,
      "stateMutability": "payable",
      "type": "function"
    },
    {
      "constant": false,
      "inputs": [
        {
          "name": "",
          "type": "address"
        },
        {
          "name": "_value",
          "type": "uint256"
        },
        {
          "name": "_data",
          "type": "bytes"
        }
      ],
      "name": "onTokenTransfer",
      "outputs": [
        {
          "name": "",
          "type": "bool"
        }
      ],
      "payable": false,
      "stateMutability": "nonpayable",
      "type": "function"
    },
    {
      "constant": false,
      "inputs": [
        {
          "name": "_amount",
          "type": "uint256"
        }
      ],
      "name": "withdraw",
      "outputs": [],
      "payable": false,
      "stateMutability": "nonpayable",
      "type": "function"
    },
    {
      "constant": false,
      "inputs": [
        {
          "name": "_tokenAddress",
          "type": "address"
        },
        {
          "name": "_amount",
          "type": "uint256"
        }
      ],
      "name": "withdrawTokens",
      "outputs": [],
      "payable": false,
      "stateMutability": "nonpayable",
      "type": "function"
    }
  ],
  "bytecode": "0x60806040523480156200001157600080fd5b5060405162003a4738038062003a4783398101806040526101008110156200003857600080fd5b810190808051906020019092919080519060200190929190805190602001909291908051906020019092919080516401000000008111156200007957600080fd5b828101905060208101848111156200009057600080fd5b8151856020820283011164010000000082111715620000ae57600080fd5b50509291906020018051640100000000811115620000cb57600080fd5b82810190506020810184811115620000e257600080fd5b81518560208202830111640100000000821117156200010057600080fd5b505092919060200180516401000000008111156200011d57600080fd5b828101905060208101848111156200013457600080fd5b81518560208202830111640100000000821117156200015257600080fd5b505092919060200180519060200190929190505050878787878787336000806101000a81548173ffffffffffffffffffffffffffffffffffffffff021916908373ffffffffffffffffffffffffffffffffffffffff1602179055506000809054906101000a900473ffffffffffffffffffffffffffffffffffffffff1673ffffffffffffffffffffffffffffffffffffffff16600073ffffffffffffffffffffffffffffffffffffffff167f8be0079c531659141344cd1fd0a4f28419497f9722a3daafe3b4186f6b6457e060405160405180910390a360008251111515620002c9576040517f08c379a00000000000000000000000000000000000000000000000000000000081526004018080602001828103825260258152602001807f526566657272616c206c6576656c2073686f756c64206265206174206c65617381526020017f74206f6e6500000000000000000000000000000000000000000000000000000081525060400191505060405180910390fd5b600360ff168251111515156200036d576040517f08c379a00000000000000000000000000000000000000000000000000000000081526004018080602001828103825260218152602001807f4578636565646564206d617820726566657272616c206c6576656c206465707481526020017f680000000000000000000000000000000000000000000000000000000000000081525060400191505060405180910390fd5b6000600282518115156200037d57fe5b0614151562000440576040517f08c379a00000000000000000000000000000000000000000000000000000000081526004018080602001828103825260478152602001807f5265666572656520426f6e75732052617465204d61702073686f756c6420626581526020017f2070617373206173205b3c6c6f77657220616d6f756e743e2c203c726174653e81526020017f2c202e2e2e2e5d0000000000000000000000000000000000000000000000000081525060600191505060405180910390fd5b600360ff16600282518115156200045357fe5b0411151515620004f1576040517f08c379a00000000000000000000000000000000000000000000000000000000081526004018080602001828103825260278152602001807f4578636565646564206d617820726566657272656520626f6e7573206c65766581526020017f6c2064657074680000000000000000000000000000000000000000000000000081525060400191505060405180910390fd5b8585111515156200056a576040517f08c379a000000000000000000000000000000000000000000000000000000000815260040180806020018281038252601b8152602001807f526566657272616c20626f6e757320657863656564732031303025000000000081525060200191505060405180910390fd5b85620005858362000939640100000000026401000000009004565b11151515620005fc576040517f08c379a000000000000000000000000000000000000000000000000000000000815260040180806020018281038252601d8152602001807f546f74616c206c6576656c20726174652065786365656473203130302500000081525060200191505060405180910390fd5b85600481905550846003819055508360058190555082600660006101000a81548160ff02191690831515021790555081600290805190602001906200064392919062000a96565b50600081511415620006b157600760408051908101604052806001815260200160045481525090806001815401808255809150509060018203906000526020600020906002020160009091929091909150600082015181600001556020820151816001015550505062000812565b60005b815181101562000810576004548260018301815181101515620006d357fe5b90602001906020020151111562000778576040517f08c379a00000000000000000000000000000000000000000000000000000000081526004018080602001828103825260268152602001807f4f6e65206f66207265666572656520626f6e757320726174652065786365656481526020017f732031303025000000000000000000000000000000000000000000000000000081525060400191505060405180910390fd5b6007604080519081016040528084848151811015156200079457fe5b9060200190602002015181526020018460018501815181101515620007b557fe5b90602001906020020151815250908060018154018082558091505090600182039060005260206000209060020201600090919290919091506000820151816000015560208201518160010155505050600281019050620006b4565b505b50505050505060008090505b8251811015620008e95760086200085c84838151811015156200083d57fe5b906020019060200201516200097e640100000000026401000000009004565b9080600181540180825580915050906001820390600052602060002090600202016000909192909190915060008201518160000160006101000a81548173ffffffffffffffffffffffffffffffffffffffff021916908373ffffffffffffffffffffffffffffffffffffffff1602179055506020820151816001015550505080806001019150506200081e565b5080600960006101000a81548173ffffffffffffffffffffffffffffffffffffffff021916908373ffffffffffffffffffffffffffffffffffffffff160217905550505050505050505062000b40565b60008060005b8351811015620009745783818151811015156200095857fe5b906020019060200201518201915080806001019150506200093f565b5080915050919050565b6200098862000ae8565b600082905060408051908101604052808273ffffffffffffffffffffffffffffffffffffffff1681526020018273ffffffffffffffffffffffffffffffffffffffff166370a08231306040518263ffffffff167c0100000000000000000000000000000000000000000000000000000000028152600401808273ffffffffffffffffffffffffffffffffffffffff1673ffffffffffffffffffffffffffffffffffffffff16815260200191505060206040518083038186803b15801562000a4e57600080fd5b505afa15801562000a63573d6000803e3d6000fd5b505050506040513d602081101562000a7a57600080fd5b8101908080519060200190929190505050815250915050919050565b82805482825590600052602060002090810192821562000ad5579160200282015b8281111562000ad457825182559160200191906001019062000ab7565b5b50905062000ae4919062000b18565b5090565b6040805190810160405280600073ffffffffffffffffffffffffffffffffffffffff168152602001600081525090565b62000b3d91905b8082111562000b3957600081600090555060010162000b1f565b5090565b90565b612ef78062000b506000396000f3fe6080604052600436106100fc576000357c0100000000000000000000000000000000000000000000000000000000900463ffffffff1680630194db8e146100fe5780630474a68e146101d757806306b091f91461021b57806311610c251461027657806318452cd8146102805780632e1a7d4d146102e9578063447e78f514610324578063557ed1ba1461035f5780635e5c06e21461038a578063715018a61461043057806387892629146104475780638da5cb5b146104965780638f32d59b146104ed578063a4c0ed361461051c578063d48bfca7146105e4578063db1058a914610635578063f069f71214610672578063f2fde38b146106c3575b005b34801561010a57600080fd5b506101c16004803603602081101561012157600080fd5b810190808035906020019064010000000081111561013e57600080fd5b82018360208201111561015057600080fd5b8035906020019184602083028401116401000000008311171561017257600080fd5b919080806020026020016040519081016040528093929190818152602001838360200280828437600081840152601f19601f820116905080830192505050505050509192919290505050610714565b6040518082815260200191505060405180910390f35b610219600480360360208110156101ed57600080fd5b81019080803573ffffffffffffffffffffffffffffffffffffffff169060200190929190505050610756565b005b34801561022757600080fd5b506102746004803603604081101561023e57600080fd5b81019080803573ffffffffffffffffffffffffffffffffffffffff1690602001909291908035906020019092919050505061077b565b005b61027e610a93565b005b34801561028c57600080fd5b506102cf600480360360208110156102a357600080fd5b81019080803573ffffffffffffffffffffffffffffffffffffffff169060200190929190505050610cd1565b604051808215151515815260200191505060405180910390f35b3480156102f557600080fd5b506103226004803603602081101561030c57600080fd5b8101908080359060200190929190505050610d6c565b005b34801561033057600080fd5b5061035d6004803603602081101561034757600080fd5b8101908080359060200190929190505050610ece565b005b34801561036b57600080fd5b50610374610f54565b6040518082815260200191505060405180910390f35b34801561039657600080fd5b506103d9600480360360208110156103ad57600080fd5b81019080803573ffffffffffffffffffffffffffffffffffffffff169060200190929190505050610f5c565b604051808573ffffffffffffffffffffffffffffffffffffffff1673ffffffffffffffffffffffffffffffffffffffff16815260200184815260200183815260200182815260200194505050505060405180910390f35b34801561043c57600080fd5b50610445610fac565b005b34801561045357600080fd5b506104806004803603602081101561046a57600080fd5b81019080803590602001909291905050506110e7565b6040518082815260200191505060405180910390f35b3480156104a257600080fd5b506104ab611189565b604051808273ffffffffffffffffffffffffffffffffffffffff1673ffffffffffffffffffffffffffffffffffffffff16815260200191505060405180910390f35b3480156104f957600080fd5b506105026111b2565b604051808215151515815260200191505060405180910390f35b34801561052857600080fd5b506105ca6004803603606081101561053f57600080fd5b81019080803573ffffffffffffffffffffffffffffffffffffffff169060200190929190803590602001909291908035906020019064010000000081111561058657600080fd5b82018360208201111561059857600080fd5b803590602001918460018302840111640100000000831117156105ba57600080fd5b9091929391929390505050611209565b604051808215151515815260200191505060405180910390f35b3480156105f057600080fd5b506106336004803603602081101561060757600080fd5b81019080803573ffffffffffffffffffffffffffffffffffffffff169060200190929190505050611417565b005b34801561064157600080fd5b506106706004803603602081101561065857600080fd5b81019080803515159060200190929190505050611649565b005b34801561067e57600080fd5b506106c16004803603602081101561069557600080fd5b81019080803573ffffffffffffffffffffffffffffffffffffffff1690602001909291905050506116e2565b005b3480156106cf57600080fd5b50610712600480360360208110156106e657600080fd5b81019080803573ffffffffffffffffffffffffffffffffffffffff16906020019092919050505061194c565b005b60008060005b835181101561074c57838181518110151561073157fe5b9060200190602002015182019150808060010191505061071a565b5080915050919050565b61075f33610cd1565b15156107705761076e816119d4565b505b610778610a93565b50565b6107836111b2565b15156107f7576040517f08c379a00000000000000000000000000000000000000000000000000000000081526004018080602001828103825260208152602001807f4f776e61626c653a2063616c6c6572206973206e6f7420746865206f776e657281525060200191505060405180910390fd5b600061080283611f24565b905060008160000160009054906101000a900473ffffffffffffffffffffffffffffffffffffffff1673ffffffffffffffffffffffffffffffffffffffff166370a08231306040518263ffffffff167c0100000000000000000000000000000000000000000000000000000000028152600401808273ffffffffffffffffffffffffffffffffffffffff1673ffffffffffffffffffffffffffffffffffffffff16815260200191505060206040518083038186803b1580156108c357600080fd5b505afa1580156108d7573d6000803e3d6000fd5b505050506040513d60208110156108ed57600080fd5b81019080805190602001909291905050509050808311151515610978576040517f08c379a00000000000000000000000000000000000000000000000000000000081526004018080602001828103825260168152602001807f546f6b656e2062616c616e636520746f6f206c6f77210000000000000000000081525060200191505060405180910390fd5b8160000160009054906101000a900473ffffffffffffffffffffffffffffffffffffffff1673ffffffffffffffffffffffffffffffffffffffff1663a9059cbb6109c0611189565b856040518363ffffffff167c0100000000000000000000000000000000000000000000000000000000028152600401808373ffffffffffffffffffffffffffffffffffffffff1673ffffffffffffffffffffffffffffffffffffffff16815260200182815260200192505050602060405180830381600087803b158015610a4657600080fd5b505af1158015610a5a573d6000803e3d6000fd5b505050506040513d6020811015610a7057600080fd5b810190808051906020019092919050505050828103826001018190555050505050565b3073ffffffffffffffffffffffffffffffffffffffff16316002340211151515610b25576040517f08c379a00000000000000000000000000000000000000000000000000000000081526004018080602001828103825260108152602001807f42616c616e636520746f6f206c6f77210000000000000000000000000000000081525060200191505060405180910390fd5b600080905060006002600960009054906101000a900473ffffffffffffffffffffffffffffffffffffffff1673ffffffffffffffffffffffffffffffffffffffff16633b3dca766040518163ffffffff167c0100000000000000000000000000000000000000000000000000000000028152600401602060405180830381600087803b158015610bb457600080fd5b505af1158015610bc8573d6000803e3d6000fd5b505050506040513d6020811015610bde57600080fd5b8101908080519060200190929190505050811515610bf857fe5b061415610c5957606460c53402811515610c0e57fe5b0490503373ffffffffffffffffffffffffffffffffffffffff166108fc829081150290604051600060405180830381858888f19350505050158015610c57573d6000803e3d6000fd5b505b610c6234612053565b507fe8be3977225bba6c803ee86dd4d929b28ff6108d8ac5c08a6b6ffb8c6002bedb3382604051808373ffffffffffffffffffffffffffffffffffffffff1673ffffffffffffffffffffffffffffffffffffffff1681526020018281526020019250505060405180910390a150565b60008073ffffffffffffffffffffffffffffffffffffffff16600160008473ffffffffffffffffffffffffffffffffffffffff1673ffffffffffffffffffffffffffffffffffffffff16815260200190815260200160002060000160009054906101000a900473ffffffffffffffffffffffffffffffffffffffff1673ffffffffffffffffffffffffffffffffffffffff1614159050919050565b610d746111b2565b1515610de8576040517f08c379a00000000000000000000000000000000000000000000000000000000081526004018080602001828103825260208152602001807f4f776e61626c653a2063616c6c6572206973206e6f7420746865206f776e657281525060200191505060405180910390fd5b3073ffffffffffffffffffffffffffffffffffffffff16318111151515610e77576040517f08c379a00000000000000000000000000000000000000000000000000000000081526004018080602001828103825260108152602001807f42616c616e636520746f6f206c6f77210000000000000000000000000000000081525060200191505060405180910390fd5b6000610e81611189565b90508073ffffffffffffffffffffffffffffffffffffffff166108fc839081150290604051600060405180830381858888f19350505050158015610ec9573d6000803e3d6000fd5b505050565b610ed66111b2565b1515610f4a576040517f08c379a00000000000000000000000000000000000000000000000000000000081526004018080602001828103825260208152602001807f4f776e61626c653a2063616c6c6572206973206e6f7420746865206f776e657281525060200191505060405180910390fd5b8060058190555050565b600042905090565b60016020528060005260406000206000915090508060000160009054906101000a900473ffffffffffffffffffffffffffffffffffffffff16908060010154908060020154908060030154905084565b610fb46111b2565b1515611028576040517f08c379a00000000000000000000000000000000000000000000000000000000081526004018080602001828103825260208152602001807f4f776e61626c653a2063616c6c6572206973206e6f7420746865206f776e657281525060200191505060405180910390fd5b600073ffffffffffffffffffffffffffffffffffffffff166000809054906101000a900473ffffffffffffffffffffffffffffffffffffffff1673ffffffffffffffffffffffffffffffffffffffff167f8be0079c531659141344cd1fd0a4f28419497f9722a3daafe3b4186f6b6457e060405160405180910390a360008060006101000a81548173ffffffffffffffffffffffffffffffffffffffff021916908373ffffffffffffffffffffffffffffffffffffffff160217905550565b600080600760008154811015156110fa57fe5b90600052602060002090600202016001015490506000600190505b60078054905081101561117f5760078181548110151561113157fe5b90600052602060002090600202016000015484101561114f5761117f565b60078181548110151561115e57fe5b90600052602060002090600202016001015491508080600101915050611115565b5080915050919050565b60008060009054906101000a900473ffffffffffffffffffffffffffffffffffffffff16905090565b60008060009054906101000a900473ffffffffffffffffffffffffffffffffffffffff1673ffffffffffffffffffffffffffffffffffffffff163373ffffffffffffffffffffffffffffffffffffffff1614905090565b60008061121533611f24565b905060008160000160009054906101000a900473ffffffffffffffffffffffffffffffffffffffff1673ffffffffffffffffffffffffffffffffffffffff166370a08231306040518263ffffffff167c0100000000000000000000000000000000000000000000000000000000028152600401808273ffffffffffffffffffffffffffffffffffffffff1673ffffffffffffffffffffffffffffffffffffffff16815260200191505060206040518083038186803b1580156112d657600080fd5b505afa1580156112ea573d6000803e3d6000fd5b505050506040513d602081101561130057600080fd5b81019080805190602001909291905050509050600085859050141561132d57808260010181905550611409565b8582600101548203101515156113d1576040517f08c379a00000000000000000000000000000000000000000000000000000000081526004018080602001828103825260408152602001807f6f6e546f6b656e5472616e73666572207761732063616c6c656420627574206e81526020017f6f2062616c616e636520696e637265617365207761732064657465637465642e81525060400191505060405180910390fd5b8082600101819055506114088260000160009054906101000a900473ffffffffffffffffffffffffffffffffffffffff1687612484565b5b600192505050949350505050565b61141f6111b2565b1515611493576040517f08c379a00000000000000000000000000000000000000000000000000000000081526004018080602001828103825260208152602001807f4f776e61626c653a2063616c6c6572206973206e6f7420746865206f776e657281525060200191505060405180910390fd5b60008090505b6008805490508110156115bb578173ffffffffffffffffffffffffffffffffffffffff166008828154811015156114cc57fe5b906000526020600020906002020160000160009054906101000a900473ffffffffffffffffffffffffffffffffffffffff1673ffffffffffffffffffffffffffffffffffffffff1614156115ae576040517f08c379a00000000000000000000000000000000000000000000000000000000081526004018080602001828103825260318152602001807f4120746f6b656e2077697468207468652070726f76696465642061646472657381526020017f7320616c7265616479206578697374732e00000000000000000000000000000081525060400191505060405180910390fd5b8080600101915050611499565b5060086115c782612806565b9080600181540180825580915050906001820390600052602060002090600202016000909192909190915060008201518160000160006101000a81548173ffffffffffffffffffffffffffffffffffffffff021916908373ffffffffffffffffffffffffffffffffffffffff1602179055506020820151816001015550505050565b6116516111b2565b15156116c5576040517f08c379a00000000000000000000000000000000000000000000000000000000081526004018080602001828103825260208152602001807f4f776e61626c653a2063616c6c6572206973206e6f7420746865206f776e657281525060200191505060405180910390fd5b80600660006101000a81548160ff02191690831515021790555050565b6116ea6111b2565b151561175e576040517f08c379a00000000000000000000000000000000000000000000000000000000081526004018080602001828103825260208152602001807f4f776e61626c653a2063616c6c6572206973206e6f7420746865206f776e657281525060200191505060405180910390fd5b60008090505b6008805490508110156118b7578173ffffffffffffffffffffffffffffffffffffffff1660088281548110151561179757fe5b906000526020600020906002020160000160009054906101000a900473ffffffffffffffffffffffffffffffffffffffff1673ffffffffffffffffffffffffffffffffffffffff1614156118aa576000600160088054905003905060088181548110151561180157fe5b906000526020600020906002020160088381548110151561181e57fe5b90600052602060002090600202016000820160009054906101000a900473ffffffffffffffffffffffffffffffffffffffff168160000160006101000a81548173ffffffffffffffffffffffffffffffffffffffff021916908373ffffffffffffffffffffffffffffffffffffffff1602179055506001820154816001015590505060009050506118b7565b8080600101915050611764565b506040517f08c379a00000000000000000000000000000000000000000000000000000000081526004018080602001828103825260268152602001807f546f6b656e20746172676574656420666f722064656c6574696f6e206e6f742081526020017f666f756e642e000000000000000000000000000000000000000000000000000081525060400191505060405180910390fd5b6119546111b2565b15156119c8576040517f08c379a00000000000000000000000000000000000000000000000000000000081526004018080602001828103825260208152602001807f4f776e61626c653a2063616c6c6572206973206e6f7420746865206f776e657281525060200191505060405180910390fd5b6119d181612919565b50565b60008073ffffffffffffffffffffffffffffffffffffffff168273ffffffffffffffffffffffffffffffffffffffff161415611ae3577f63a04625ee50186097257e079ace9a312982f1976bdffa769db82a83c2ffc0063383604051808373ffffffffffffffffffffffffffffffffffffffff1673ffffffffffffffffffffffffffffffffffffffff1681526020018273ffffffffffffffffffffffffffffffffffffffff1673ffffffffffffffffffffffffffffffffffffffff168152602001806020018281038252601e8152602001807f52656665727265722063616e6e6f742062652030783020616464726573730000815250602001935050505060405180910390a160009050611f1f565b611aed8233612aa2565b15611bf1577f63a04625ee50186097257e079ace9a312982f1976bdffa769db82a83c2ffc0063383604051808373ffffffffffffffffffffffffffffffffffffffff1673ffffffffffffffffffffffffffffffffffffffff1681526020018273ffffffffffffffffffffffffffffffffffffffff1673ffffffffffffffffffffffffffffffffffffffff16815260200180602001828103825260298152602001807f526566657265652063616e6e6f74206265206f6e65206f66207265666572726581526020017f722075706c696e65730000000000000000000000000000000000000000000000815250604001935050505060405180910390a160009050611f1f565b600073ffffffffffffffffffffffffffffffffffffffff16600160003373ffffffffffffffffffffffffffffffffffffffff1673ffffffffffffffffffffffffffffffffffffffff16815260200190815260200160002060000160009054906101000a900473ffffffffffffffffffffffffffffffffffffffff1673ffffffffffffffffffffffffffffffffffffffff16141515611d88577f63a04625ee50186097257e079ace9a312982f1976bdffa769db82a83c2ffc0063383604051808373ffffffffffffffffffffffffffffffffffffffff1673ffffffffffffffffffffffffffffffffffffffff1681526020018273ffffffffffffffffffffffffffffffffffffffff1673ffffffffffffffffffffffffffffffffffffffff16815260200180602001828103825260238152602001807f416464726573732068617665206265656e20726567697374657265642075706c81526020017f696e650000000000000000000000000000000000000000000000000000000000815250604001935050505060405180910390a160009050611f1f565b6000600160003373ffffffffffffffffffffffffffffffffffffffff1673ffffffffffffffffffffffffffffffffffffffff16815260200190815260200160002090506000600160008573ffffffffffffffffffffffffffffffffffffffff1673ffffffffffffffffffffffffffffffffffffffff1681526020019081526020016000209050838260000160006101000a81548173ffffffffffffffffffffffffffffffffffffffff021916908373ffffffffffffffffffffffffffffffffffffffff160217905550611e59610f54565b8260030181905550611e7960018260020154612bb090919063ffffffff16565b81600201819055507ffaf63637882ff2d63ca76881cf92fb857130e36f350c926f9cc884b499b42b773385604051808373ffffffffffffffffffffffffffffffffffffffff1673ffffffffffffffffffffffffffffffffffffffff1681526020018273ffffffffffffffffffffffffffffffffffffffff1673ffffffffffffffffffffffffffffffffffffffff1681526020019250505060405180910390a16001925050505b919050565b600080600090505b600880549050811015611fdf578273ffffffffffffffffffffffffffffffffffffffff16600882815481101515611f5f57fe5b906000526020600020906002020160000160009054906101000a900473ffffffffffffffffffffffffffffffffffffffff1673ffffffffffffffffffffffffffffffffffffffff161415611fd257600881815481101515611fbc57fe5b906000526020600020906002020191505061204e565b8080600101915050611f2c565b506040517f08c379a00000000000000000000000000000000000000000000000000000000081526004018080602001828103825260108152602001807f546f6b656e206e6f7420666f756e642e0000000000000000000000000000000081525060200191505060405180910390fd5b919050565b600061205d612e5c565b600160003373ffffffffffffffffffffffffffffffffffffffff1673ffffffffffffffffffffffffffffffffffffffff168152602001908152602001600020608060405190810160405290816000820160009054906101000a900473ffffffffffffffffffffffffffffffffffffffff1673ffffffffffffffffffffffffffffffffffffffff1673ffffffffffffffffffffffffffffffffffffffff168152602001600182015481526020016002820154815260200160038201548152505090506000805b60028054905081101561247057600083600001519050600060016000866000015173ffffffffffffffffffffffffffffffffffffffff1673ffffffffffffffffffffffffffffffffffffffff1681526020019081526020016000209050600073ffffffffffffffffffffffffffffffffffffffff168273ffffffffffffffffffffffffffffffffffffffff1614156121bb575050612470565b600660009054906101000a900460ff1680156121f657506121da610f54565b6121f36005548360030154612bb090919063ffffffff16565b10155b8061220e5750600660009054906101000a900460ff16155b156123de57600061223e6004546122306003548b612c3a90919063ffffffff16565b612d0790919063ffffffff16565b905061228060045461227260028781548110151561225857fe5b906000526020600020015484612c3a90919063ffffffff16565b612d0790919063ffffffff16565b90506122b56004546122a761229885600201546110e7565b84612c3a90919063ffffffff16565b612d0790919063ffffffff16565b90506122ca8186612bb090919063ffffffff16565b94506122e3818360010154612bb090919063ffffffff16565b82600101819055508273ffffffffffffffffffffffffffffffffffffffff166108fc829081150290604051600060405180830381858888f19350505050158015612331573d6000803e3d6000fd5b507f3eb64e24c53fdbac5e2f9a92ef0865a35f6777db50dd26bc5d3f813e7ec44d0533848360018801604051808573ffffffffffffffffffffffffffffffffffffffff1673ffffffffffffffffffffffffffffffffffffffff1681526020018473ffffffffffffffffffffffffffffffffffffffff1673ffffffffffffffffffffffffffffffffffffffff16815260200183815260200182815260200194505050505060405180910390a1505b80608060405190810160405290816000820160009054906101000a900473ffffffffffffffffffffffffffffffffffffffff1673ffffffffffffffffffffffffffffffffffffffff1673ffffffffffffffffffffffffffffffffffffffff1681526020016001820154815260200160028201548152602001600382015481525050945050508080600101915050612122565b5061247a33612d9a565b8092505050919050565b8173ffffffffffffffffffffffffffffffffffffffff166370a08231306040518263ffffffff167c0100000000000000000000000000000000000000000000000000000000028152600401808273ffffffffffffffffffffffffffffffffffffffff1673ffffffffffffffffffffffffffffffffffffffff16815260200191505060206040518083038186803b15801561251d57600080fd5b505afa158015612531573d6000803e3d6000fd5b505050506040513d602081101561254757600080fd5b810190808051906020019092919050505060028202111515156125d2576040517f08c379a00000000000000000000000000000000000000000000000000000000081526004018080602001828103825260198152602001807f436f6e74726163742062616c616e636520746f6f206c6f77210000000000000081525060200191505060405180910390fd5b600080905060006002600960009054906101000a900473ffffffffffffffffffffffffffffffffffffffff1673ffffffffffffffffffffffffffffffffffffffff16633b3dca766040518163ffffffff167c0100000000000000000000000000000000000000000000000000000000028152600401602060405180830381600087803b15801561266157600080fd5b505af1158015612675573d6000803e3d6000fd5b505050506040513d602081101561268b57600080fd5b81019080805190602001909291905050508115156126a557fe5b061415612796576002820290508273ffffffffffffffffffffffffffffffffffffffff1663a9059cbb61c35032846040518463ffffffff167c0100000000000000000000000000000000000000000000000000000000028152600401808373ffffffffffffffffffffffffffffffffffffffff1673ffffffffffffffffffffffffffffffffffffffff16815260200182815260200192505050602060405180830381600088803b15801561275857600080fd5b5087f115801561276c573d6000803e3d6000fd5b50505050506040513d602081101561278357600080fd5b8101908080519060200190929190505050505b7fe8be3977225bba6c803ee86dd4d929b28ff6108d8ac5c08a6b6ffb8c6002bedb3282604051808373ffffffffffffffffffffffffffffffffffffffff1673ffffffffffffffffffffffffffffffffffffffff1681526020018281526020019250505060405180910390a1505050565b61280e612e9b565b600082905060408051908101604052808273ffffffffffffffffffffffffffffffffffffffff1681526020018273ffffffffffffffffffffffffffffffffffffffff166370a08231306040518263ffffffff167c0100000000000000000000000000000000000000000000000000000000028152600401808273ffffffffffffffffffffffffffffffffffffffff1673ffffffffffffffffffffffffffffffffffffffff16815260200191505060206040518083038186803b1580156128d357600080fd5b505afa1580156128e7573d6000803e3d6000fd5b505050506040513d60208110156128fd57600080fd5b8101908080519060200190929190505050815250915050919050565b600073ffffffffffffffffffffffffffffffffffffffff168173ffffffffffffffffffffffffffffffffffffffff16141515156129e4576040517f08c379a00000000000000000000000000000000000000000000000000000000081526004018080602001828103825260268152602001807f4f776e61626c653a206e6577206f776e657220697320746865207a65726f206181526020017f646472657373000000000000000000000000000000000000000000000000000081525060400191505060405180910390fd5b8073ffffffffffffffffffffffffffffffffffffffff166000809054906101000a900473ffffffffffffffffffffffffffffffffffffffff1673ffffffffffffffffffffffffffffffffffffffff167f8be0079c531659141344cd1fd0a4f28419497f9722a3daafe3b4186f6b6457e060405160405180910390a3806000806101000a81548173ffffffffffffffffffffffffffffffffffffffff021916908373ffffffffffffffffffffffffffffffffffffffff16021790555050565b60008083905060005b600280549050811015612ba357600073ffffffffffffffffffffffffffffffffffffffff168273ffffffffffffffffffffffffffffffffffffffff161415612af257612ba3565b8373ffffffffffffffffffffffffffffffffffffffff168273ffffffffffffffffffffffffffffffffffffffff161415612b3157600192505050612baa565b600160008373ffffffffffffffffffffffffffffffffffffffff1673ffffffffffffffffffffffffffffffffffffffff16815260200190815260200160002060000160009054906101000a900473ffffffffffffffffffffffffffffffffffffffff1691508080600101915050612aab565b5060009150505b92915050565b6000808284019050838110151515612c30576040517f08c379a000000000000000000000000000000000000000000000000000000000815260040180806020018281038252601b8152602001807f536166654d6174683a206164646974696f6e206f766572666c6f77000000000081525060200191505060405180910390fd5b8091505092915050565b600080831415612c4d5760009050612d01565b60008284029050828482811515612c6057fe5b04141515612cfc576040517f08c379a00000000000000000000000000000000000000000000000000000000081526004018080602001828103825260218152602001807f536166654d6174683a206d756c7469706c69636174696f6e206f766572666c6f81526020017f770000000000000000000000000000000000000000000000000000000000000081525060400191505060405180910390fd5b809150505b92915050565b60008082111515612d80576040517f08c379a000000000000000000000000000000000000000000000000000000000815260040180806020018281038252601a8152602001807f536166654d6174683a206469766973696f6e206279207a65726f00000000000081525060200191505060405180910390fd5b60008284811515612d8d57fe5b0490508091505092915050565b6000612da4610f54565b905080600160008473ffffffffffffffffffffffffffffffffffffffff1673ffffffffffffffffffffffffffffffffffffffff168152602001908152602001600020600301819055507f0186c8486ec4ff89359fec8af5f6a89cbdbaa26a8e9fe4bb2f15eb86b8513cb88282604051808373ffffffffffffffffffffffffffffffffffffffff1673ffffffffffffffffffffffffffffffffffffffff1681526020018281526020019250505060405180910390a15050565b608060405190810160405280600073ffffffffffffffffffffffffffffffffffffffff1681526020016000815260200160008152602001600081525090565b6040805190810160405280600073ffffffffffffffffffffffffffffffffffffffff16815260200160008152509056fea165627a7a723058207efa896b6a4c646367eb1820ebb26b70985cd2e72d1ed1dab0fd011af129c9eb0029",
  "source": "pragma solidity 0.5.0;\n\nimport '@thundercore/referral-solidity/contracts/Referral.sol';\nimport \"openzeppelin-solidity/contracts/ownership/Ownable.sol\";\nimport \"openzeppelin-solidity/contracts/token/ERC20/ERC20.sol\";\nimport \"./ERC677Interface.sol\";\nimport \"./ThunderRandomLibraryInterface.sol\";\n\ncontract DoubleOrNothing is Ownable, Referral, ERC677Receiver {\n\n    TokenData[] internal tokens;\n    ThunderRandomLibraryInterface internal RNGLibrary;\n    struct TokenData {\n        IBurnableMintableERC677Token instance;\n        uint256 lastBalance; // Don't trust this; see onTokenTransfer\n    }\n\n    event BetSettled(address player, uint256 winnings);\n\n    constructor(\n        uint _decimals,\n        uint _referralBonus,\n        uint _secondsUntilInactive,\n        bool _onlyRewardActiveReferrers,\n        uint256[] memory _levelRate,\n        uint256[] memory _refereeBonusRateMap,\n        address[] memory _tokenAddresses,\n        address _randomNumberContractAddress\n    ) Referral(\n        _decimals,\n        _referralBonus,\n        _secondsUntilInactive,\n        _onlyRewardActiveReferrers,\n        _levelRate,\n        _refereeBonusRateMap\n    ) public {\n        for (uint i = 0; i < _tokenAddresses.length; i++) {\n            tokens.push(generateTokenData(_tokenAddresses[i]));\n        }\n        RNGLibrary = ThunderRandomLibraryInterface(_randomNumberContractAddress);\n    }\n\n    function generateTokenData(address _tokenAddress) internal view returns (TokenData memory) {\n        IBurnableMintableERC677Token token = IBurnableMintableERC677Token(_tokenAddress);\n        return TokenData(token, token.balanceOf(address(this)));\n    }\n\n    // Return a TokenData value passed by reference so we can modify it directly.\n    function getToken(address _tokenAddress) internal view returns (TokenData storage) {\n        for (uint i = 0; i < tokens.length; i++) {\n            if (address(tokens[i].instance) == _tokenAddress) {\n                return tokens[i];\n            }\n        }\n        revert(\"Token not found.\");\n    }\n\n    function addToken(address _tokenAddress) external onlyOwner {\n        for (uint i = 0; i < tokens.length; i++) {\n            if (address(tokens[i].instance) == _tokenAddress) {\n                revert('A token with the provided address already exists.');\n            }\n        }\n        tokens.push(generateTokenData(_tokenAddress));\n    }\n\n    function deleteToken(address _tokenAddress) external onlyOwner {\n        for (uint i = 0; i < tokens.length; i++) {\n            if (address(tokens[i].instance) == _tokenAddress) {\n                uint256 lastIdx = tokens.length - 1;\n                tokens[i] = tokens[lastIdx];\n                delete lastIdx;\n                break;\n            }\n        }\n        revert('Token targeted for deletion not found.');\n    }\n\n    function bet(address payable _referrer) payable external {\n        if(!hasReferrer(msg.sender)) {\n            addReferrer(_referrer);\n        }\n        bet();\n    }\n\n    // value transfer tx based bet.\n    function bet() payable public {\n        // msg.value is added to the balance to begin with so you need to double it\n        require(msg.value * 2 <= address(this).balance, 'Balance too low!');\n        uint256 winnings = 0;\n\n        if(RNGLibrary.rand() % 2 == 0) {\n            // 3% is deducted to cover the referral bonus\n            winnings = msg.value * 197/100;\n            address(msg.sender).transfer(winnings);\n        }\n\n        payReferral(msg.value);\n        emit BetSettled(msg.sender, winnings);\n    }\n\n    // This function handles ERC677 token bets.\n    // This function does _not_ pay out referral bonuses.\n    function betTokens(IBurnableMintableERC677Token _token, uint256 _amount) internal {\n        // The smart contract needs to be able to pay double the value sent.\n        require(_amount * 2 <= _token.balanceOf(address(this)), 'Contract balance too low!');\n\n        uint256 winnings = 0;\n\n        if(RNGLibrary.rand()  % 2 == 0) {\n            winnings = _amount * 2;\n\n            // This transaction can fail due to not enough gas being sent\n            // with the call, so we specify the amount of gas to forward.\n            _token.transfer.gas(50000)(tx.origin, winnings);\n        }\n\n        emit BetSettled(tx.origin, winnings);\n    }\n\n    // With no data sent, the contract token balance is simply updated.\n    // Any data provided indicates that a user wants to make a bet.\n    function onTokenTransfer(address /*_from*/, uint _value, bytes calldata _data) external returns(bool) {\n        TokenData storage token = getToken(msg.sender);\n        uint256 updatedBalance = token.instance.balanceOf(address(this));\n\n        if (_data.length == 0) {\n            token.lastBalance = updatedBalance;\n        } else {\n            // It doesn't matter if the current stored `lastTokenBalance` is correct.\n            // The balance increase needs to be _at least_ as much as the\n            // stated _value.\n            require(updatedBalance - token.lastBalance >= _value, \"onTokenTransfer was called but no balance increase was detected.\");\n            token.lastBalance = updatedBalance;\n            betTokens(token.instance, _value);\n        }\n        return true;\n    }\n\n    function withdraw(uint256 _amount) external onlyOwner {\n        require(_amount <= address(this).balance, 'Balance too low!');\n        address payable owner = address(uint160(owner()));\n        owner.transfer(_amount);\n    }\n\n    function withdrawTokens(address _tokenAddress, uint256 _amount) external onlyOwner {\n        TokenData storage token = getToken(_tokenAddress);\n        uint256 currentTokenBalance = token.instance.balanceOf(address(this));\n\n        require(_amount <= currentTokenBalance, 'Token balance too low!');\n\n        token.instance.transfer(owner(), _amount);\n        token.lastBalance = currentTokenBalance - _amount;\n    }\n\n    // This fallback function eats all funds and gas sent to it.\n    // The owner can withdraw from the contract balance via `withdraw` above.\n    function() external payable {}\n}\n",
  "sourcePath": "/Users/yjiang/git/test/DoubleOrNothing/smart-contracts/contracts/DoubleOrNothing.sol",
  "compiler": {
    "name": "solc",
    "version": "0.5.0+commit.1d4f565a.Emscripten.clang"
  },
  "schemaVersion": "3.0.11",
  "updatedAt": "2019-08-29T08:01:49.154Z",
  "devdoc": {
    "methods": {
      "getRefereeBonusRate(uint256)": {
        "details": "Given a user amount to calc in which rate period",
        "params": {
          "amount": "The number of referrees"
        }
      },
      "getTime()": {
        "details": "Get block timestamp with function for testing mock"
      },
      "hasReferrer(address)": {
        "details": "Utils function for check whether an address has the referrer"
      },
      "isOwner()": {
        "details": "Returns true if the caller is the current owner."
      },
      "owner()": {
        "details": "Returns the address of the current owner."
      },
      "renounceOwnership()": {
        "details": "Leaves the contract without owner. It will not be possible to call `onlyOwner` functions anymore. Can only be called by the current owner.     * > Note: Renouncing ownership will leave the contract without an owner, thereby removing any functionality that is only available to the owner."
      },
      "transferOwnership(address)": {
        "details": "Transfers ownership of the contract to a new account (`newOwner`). Can only be called by the current owner."
      }
    }
  },
  "userdoc": {
    "methods": {}
  }
}