{
  "contractName": "DoubleOrNothing",
  "abi": [
    {
      "constant": true,
      "inputs": [
        {
          "name": "data",
          "type": "uint256[]"
        }
      ],
      "name": "sum",
      "outputs": [
        {
          "name": "",
          "type": "uint256"
        }
      ],
      "payable": false,
      "stateMutability": "pure",
      "type": "function"
    },
    {
      "constant": true,
      "inputs": [
        {
          "name": "addr",
          "type": "address"
        }
      ],
      "name": "hasReferrer",
      "outputs": [
        {
          "name": "",
          "type": "bool"
        }
      ],
      "payable": false,
      "stateMutability": "view",
      "type": "function"
    },
    {
      "constant": false,
      "inputs": [
        {
          "name": "_secondsUntilInactive",
          "type": "uint256"
        }
      ],
      "name": "setSecondsUntilInactive",
      "outputs": [],
      "payable": false,
      "stateMutability": "nonpayable",
      "type": "function"
    },
    {
      "constant": true,
      "inputs": [],
      "name": "getTime",
      "outputs": [
        {
          "name": "",
          "type": "uint256"
        }
      ],
      "payable": false,
      "stateMutability": "view",
      "type": "function"
    },
    {
      "constant": true,
      "inputs": [
        {
          "name": "",
          "type": "address"
        }
      ],
      "name": "accounts",
      "outputs": [
        {
          "name": "referrer",
          "type": "address"
        },
        {
          "name": "reward",
          "type": "uint256"
        },
        {
          "name": "referredCount",
          "type": "uint256"
        },
        {
          "name": "lastActiveTimestamp",
          "type": "uint256"
        }
      ],
      "payable": false,
      "stateMutability": "view",
      "type": "function"
    },
    {
      "constant": false,
      "inputs": [],
      "name": "renounceOwnership",
      "outputs": [],
      "payable": false,
      "stateMutability": "nonpayable",
      "type": "function"
    },
    {
      "constant": true,
      "inputs": [
        {
          "name": "amount",
          "type": "uint256"
        }
      ],
      "name": "getRefereeBonusRate",
      "outputs": [
        {
          "name": "",
          "type": "uint256"
        }
      ],
      "payable": false,
      "stateMutability": "view",
      "type": "function"
    },
    {
      "constant": true,
      "inputs": [],
      "name": "owner",
      "outputs": [
        {
          "name": "",
          "type": "address"
        }
      ],
      "payable": false,
      "stateMutability": "view",
      "type": "function"
    },
    {
      "constant": true,
      "inputs": [],
      "name": "isOwner",
      "outputs": [
        {
          "name": "",
          "type": "bool"
        }
      ],
      "payable": false,
      "stateMutability": "view",
      "type": "function"
    },
    {
      "constant": false,
      "inputs": [
        {
          "name": "_onlyRewardActiveReferrers",
          "type": "bool"
        }
      ],
      "name": "setOnlyRewardAActiveReferrers",
      "outputs": [],
      "payable": false,
      "stateMutability": "nonpayable",
      "type": "function"
    },
    {
      "constant": false,
      "inputs": [
        {
          "name": "newOwner",
          "type": "address"
        }
      ],
      "name": "transferOwnership",
      "outputs": [],
      "payable": false,
      "stateMutability": "nonpayable",
      "type": "function"
    },
    {
      "inputs": [
        {
          "name": "_decimals",
          "type": "uint256"
        },
        {
          "name": "_referralBonus",
          "type": "uint256"
        },
        {
          "name": "_secondsUntilInactive",
          "type": "uint256"
        },
        {
          "name": "_onlyRewardActiveReferrers",
          "type": "bool"
        },
        {
          "name": "_levelRate",
          "type": "uint256[]"
        },
        {
          "name": "_refereeBonusRateMap",
          "type": "uint256[]"
        }
      ],
      "payable": false,
      "stateMutability": "nonpayable",
      "type": "constructor"
    },
    {
      "payable": true,
      "stateMutability": "payable",
      "type": "fallback"
    },
    {
      "anonymous": false,
      "inputs": [
        {
          "indexed": false,
          "name": "player",
          "type": "address"
        },
        {
          "indexed": false,
          "name": "winnings",
          "type": "uint256"
        }
      ],
      "name": "BetSettled",
      "type": "event"
    },
    {
      "anonymous": false,
      "inputs": [
        {
          "indexed": false,
          "name": "referee",
          "type": "address"
        },
        {
          "indexed": false,
          "name": "referrer",
          "type": "address"
        }
      ],
      "name": "RegisteredReferer",
      "type": "event"
    },
    {
      "anonymous": false,
      "inputs": [
        {
          "indexed": false,
          "name": "referee",
          "type": "address"
        },
        {
          "indexed": false,
          "name": "referrer",
          "type": "address"
        },
        {
          "indexed": false,
          "name": "reason",
          "type": "string"
        }
      ],
      "name": "RegisteredRefererFailed",
      "type": "event"
    },
    {
      "anonymous": false,
      "inputs": [
        {
          "indexed": false,
          "name": "from",
          "type": "address"
        },
        {
          "indexed": false,
          "name": "to",
          "type": "address"
        },
        {
          "indexed": false,
          "name": "amount",
          "type": "uint256"
        },
        {
          "indexed": false,
          "name": "level",
          "type": "uint256"
        }
      ],
      "name": "PaidReferral",
      "type": "event"
    },
    {
      "anonymous": false,
      "inputs": [
        {
          "indexed": false,
          "name": "user",
          "type": "address"
        },
        {
          "indexed": false,
          "name": "timestamp",
          "type": "uint256"
        }
      ],
      "name": "UpdatedUserLastActiveTime",
      "type": "event"
    },
    {
      "anonymous": false,
      "inputs": [
        {
          "indexed": true,
          "name": "previousOwner",
          "type": "address"
        },
        {
          "indexed": true,
          "name": "newOwner",
          "type": "address"
        }
      ],
      "name": "OwnershipTransferred",
      "type": "event"
    },
    {
      "constant": false,
      "inputs": [
        {
          "name": "_referrer",
          "type": "address"
        }
      ],
      "name": "bet",
      "outputs": [],
      "payable": true,
      "stateMutability": "payable",
      "type": "function"
    },
    {
      "constant": false,
      "inputs": [],
      "name": "bet",
      "outputs": [],
      "payable": true,
      "stateMutability": "payable",
      "type": "function"
    },
    {
      "constant": false,
      "inputs": [
        {
          "name": "_amount",
          "type": "uint256"
        }
      ],
      "name": "withdraw",
      "outputs": [],
      "payable": false,
      "stateMutability": "nonpayable",
      "type": "function"
    }
  ],
  "bytecode": "0x60806040523480156200001157600080fd5b506040516200251e3803806200251e833981018060405260c08110156200003757600080fd5b810190808051906020019092919080519060200190929190805190602001909291908051906020019092919080516401000000008111156200007857600080fd5b828101905060208101848111156200008f57600080fd5b8151856020820283011164010000000082111715620000ad57600080fd5b50509291906020018051640100000000811115620000ca57600080fd5b82810190506020810184811115620000e157600080fd5b8151856020820283011164010000000082111715620000ff57600080fd5b5050929190505050858585858585336000806101000a81548173ffffffffffffffffffffffffffffffffffffffff021916908373ffffffffffffffffffffffffffffffffffffffff1602179055506000809054906101000a900473ffffffffffffffffffffffffffffffffffffffff1673ffffffffffffffffffffffffffffffffffffffff16600073ffffffffffffffffffffffffffffffffffffffff167f8be0079c531659141344cd1fd0a4f28419497f9722a3daafe3b4186f6b6457e060405160405180910390a36000825111151562000269576040517f08c379a00000000000000000000000000000000000000000000000000000000081526004018080602001828103825260258152602001807f526566657272616c206c6576656c2073686f756c64206265206174206c65617381526020017f74206f6e6500000000000000000000000000000000000000000000000000000081525060400191505060405180910390fd5b600360ff168251111515156200030d576040517f08c379a00000000000000000000000000000000000000000000000000000000081526004018080602001828103825260218152602001807f4578636565646564206d617820726566657272616c206c6576656c206465707481526020017f680000000000000000000000000000000000000000000000000000000000000081525060400191505060405180910390fd5b6000600282518115156200031d57fe5b06141515620003e0576040517f08c379a00000000000000000000000000000000000000000000000000000000081526004018080602001828103825260478152602001807f5265666572656520426f6e75732052617465204d61702073686f756c6420626581526020017f2070617373206173205b3c6c6f77657220616d6f756e743e2c203c726174653e81526020017f2c202e2e2e2e5d0000000000000000000000000000000000000000000000000081525060600191505060405180910390fd5b600360ff1660028251811515620003f357fe5b041115151562000491576040517f08c379a00000000000000000000000000000000000000000000000000000000081526004018080602001828103825260278152602001807f4578636565646564206d617820726566657272656520626f6e7573206c65766581526020017f6c2064657074680000000000000000000000000000000000000000000000000081525060400191505060405180910390fd5b8585111515156200050a576040517f08c379a000000000000000000000000000000000000000000000000000000000815260040180806020018281038252601b8152602001807f526566657272616c20626f6e757320657863656564732031303025000000000081525060200191505060405180910390fd5b856200052583620007c4640100000000026401000000009004565b111515156200059c576040517f08c379a000000000000000000000000000000000000000000000000000000000815260040180806020018281038252601d8152602001807f546f74616c206c6576656c20726174652065786365656473203130302500000081525060200191505060405180910390fd5b85600481905550846003819055508360058190555082600660006101000a81548160ff0219169083151502179055508160029080519060200190620005e392919062000809565b5060008151141562000651576007604080519081016040528060018152602001600454815250908060018154018082558091505090600182039060005260206000209060020201600090919290919091506000820151816000015560208201518160010155505050620007b2565b60005b8151811015620007b05760045482600183018151811015156200067357fe5b90602001906020020151111562000718576040517f08c379a00000000000000000000000000000000000000000000000000000000081526004018080602001828103825260268152602001807f4f6e65206f66207265666572656520626f6e757320726174652065786365656481526020017f732031303025000000000000000000000000000000000000000000000000000081525060400191505060405180910390fd5b6007604080519081016040528084848151811015156200073457fe5b90602001906020020151815260200184600185018151811015156200075557fe5b9060200190602002015181525090806001815401808255809150509060018203906000526020600020906002020160009091929091909150600082015181600001556020820151816001015550505060028101905062000654565b505b50505050505050505050505062000883565b60008060005b8351811015620007ff578381815181101515620007e357fe5b90602001906020020151820191508080600101915050620007ca565b5080915050919050565b82805482825590600052602060002090810192821562000848579160200282015b82811115620008475782518255916020019190600101906200082a565b5b5090506200085791906200085b565b5090565b6200088091905b808211156200087c57600081600090555060010162000862565b5090565b90565b611c8b80620008936000396000f3fe6080604052600436106100d0576000357c0100000000000000000000000000000000000000000000000000000000900463ffffffff1680630194db8e146100d25780630474a68e146101ab57806311610c25146101ef57806318452cd8146101f95780632e1a7d4d14610262578063447e78f51461029d578063557ed1ba146102d85780635e5c06e214610303578063715018a6146103a957806387892629146103c05780638da5cb5b1461040f5780638f32d59b14610466578063db1058a914610495578063f2fde38b146104d2575b005b3480156100de57600080fd5b50610195600480360360208110156100f557600080fd5b810190808035906020019064010000000081111561011257600080fd5b82018360208201111561012457600080fd5b8035906020019184602083028401116401000000008311171561014657600080fd5b919080806020026020016040519081016040528093929190818152602001838360200280828437600081840152601f19601f820116905080830192505050505050509192919290505050610523565b6040518082815260200191505060405180910390f35b6101ed600480360360208110156101c157600080fd5b81019080803573ffffffffffffffffffffffffffffffffffffffff169060200190929190505050610565565b005b6101f761058a565b005b34801561020557600080fd5b506102486004803603602081101561021c57600080fd5b81019080803573ffffffffffffffffffffffffffffffffffffffff169060200190929190505050610710565b604051808215151515815260200191505060405180910390f35b34801561026e57600080fd5b5061029b6004803603602081101561028557600080fd5b81019080803590602001909291905050506107ab565b005b3480156102a957600080fd5b506102d6600480360360208110156102c057600080fd5b8101908080359060200190929190505050610900565b005b3480156102e457600080fd5b506102ed610986565b6040518082815260200191505060405180910390f35b34801561030f57600080fd5b506103526004803603602081101561032657600080fd5b81019080803573ffffffffffffffffffffffffffffffffffffffff16906020019092919050505061098e565b604051808573ffffffffffffffffffffffffffffffffffffffff1673ffffffffffffffffffffffffffffffffffffffff16815260200184815260200183815260200182815260200194505050505060405180910390f35b3480156103b557600080fd5b506103be6109de565b005b3480156103cc57600080fd5b506103f9600480360360208110156103e357600080fd5b8101908080359060200190929190505050610b19565b6040518082815260200191505060405180910390f35b34801561041b57600080fd5b50610424610bbb565b604051808273ffffffffffffffffffffffffffffffffffffffff1673ffffffffffffffffffffffffffffffffffffffff16815260200191505060405180910390f35b34801561047257600080fd5b5061047b610be4565b604051808215151515815260200191505060405180910390f35b3480156104a157600080fd5b506104d0600480360360208110156104b857600080fd5b81019080803515159060200190929190505050610c3b565b005b3480156104de57600080fd5b50610521600480360360208110156104f557600080fd5b81019080803573ffffffffffffffffffffffffffffffffffffffff169060200190929190505050610cd4565b005b60008060005b835181101561055b57838181518110151561054057fe5b90602001906020020151820191508080600101915050610529565b5080915050919050565b61056e33610710565b151561057f5761057d81610d5c565b505b61058761058a565b50565b3073ffffffffffffffffffffffffffffffffffffffff1631600234021115151561061c576040517f08c379a00000000000000000000000000000000000000000000000000000000081526004018080602001828103825260108152602001807f42616c616e636520746f6f206c6f77210000000000000000000000000000000081525060200191505060405180910390fd5b60008090506000600260014303406001900481151561063757fe5b06141561069857606460c5340281151561064d57fe5b0490503373ffffffffffffffffffffffffffffffffffffffff166108fc829081150290604051600060405180830381858888f19350505050158015610696573d6000803e3d6000fd5b505b6106a1346112ac565b507fe8be3977225bba6c803ee86dd4d929b28ff6108d8ac5c08a6b6ffb8c6002bedb3382604051808373ffffffffffffffffffffffffffffffffffffffff1673ffffffffffffffffffffffffffffffffffffffff1681526020018281526020019250505060405180910390a150565b60008073ffffffffffffffffffffffffffffffffffffffff16600160008473ffffffffffffffffffffffffffffffffffffffff1673ffffffffffffffffffffffffffffffffffffffff16815260200190815260200160002060000160009054906101000a900473ffffffffffffffffffffffffffffffffffffffff1673ffffffffffffffffffffffffffffffffffffffff1614159050919050565b6107b3610be4565b1515610827576040517f08c379a00000000000000000000000000000000000000000000000000000000081526004018080602001828103825260208152602001807f4f776e61626c653a2063616c6c6572206973206e6f7420746865206f776e657281525060200191505060405180910390fd5b3073ffffffffffffffffffffffffffffffffffffffff163181111515156108b6576040517f08c379a00000000000000000000000000000000000000000000000000000000081526004018080602001828103825260108152602001807f42616c616e636520746f6f206c6f77210000000000000000000000000000000081525060200191505060405180910390fd5b3373ffffffffffffffffffffffffffffffffffffffff166108fc829081150290604051600060405180830381858888f193505050501580156108fc573d6000803e3d6000fd5b5050565b610908610be4565b151561097c576040517f08c379a00000000000000000000000000000000000000000000000000000000081526004018080602001828103825260208152602001807f4f776e61626c653a2063616c6c6572206973206e6f7420746865206f776e657281525060200191505060405180910390fd5b8060058190555050565b600042905090565b60016020528060005260406000206000915090508060000160009054906101000a900473ffffffffffffffffffffffffffffffffffffffff16908060010154908060020154908060030154905084565b6109e6610be4565b1515610a5a576040517f08c379a00000000000000000000000000000000000000000000000000000000081526004018080602001828103825260208152602001807f4f776e61626c653a2063616c6c6572206973206e6f7420746865206f776e657281525060200191505060405180910390fd5b600073ffffffffffffffffffffffffffffffffffffffff166000809054906101000a900473ffffffffffffffffffffffffffffffffffffffff1673ffffffffffffffffffffffffffffffffffffffff167f8be0079c531659141344cd1fd0a4f28419497f9722a3daafe3b4186f6b6457e060405160405180910390a360008060006101000a81548173ffffffffffffffffffffffffffffffffffffffff021916908373ffffffffffffffffffffffffffffffffffffffff160217905550565b60008060076000815481101515610b2c57fe5b90600052602060002090600202016001015490506000600190505b600780549050811015610bb157600781815481101515610b6357fe5b906000526020600020906002020160000154841015610b8157610bb1565b600781815481101515610b9057fe5b90600052602060002090600202016001015491508080600101915050610b47565b5080915050919050565b60008060009054906101000a900473ffffffffffffffffffffffffffffffffffffffff16905090565b60008060009054906101000a900473ffffffffffffffffffffffffffffffffffffffff1673ffffffffffffffffffffffffffffffffffffffff163373ffffffffffffffffffffffffffffffffffffffff1614905090565b610c43610be4565b1515610cb7576040517f08c379a00000000000000000000000000000000000000000000000000000000081526004018080602001828103825260208152602001807f4f776e61626c653a2063616c6c6572206973206e6f7420746865206f776e657281525060200191505060405180910390fd5b80600660006101000a81548160ff02191690831515021790555050565b610cdc610be4565b1515610d50576040517f08c379a00000000000000000000000000000000000000000000000000000000081526004018080602001828103825260208152602001807f4f776e61626c653a2063616c6c6572206973206e6f7420746865206f776e657281525060200191505060405180910390fd5b610d59816116dd565b50565b60008073ffffffffffffffffffffffffffffffffffffffff168273ffffffffffffffffffffffffffffffffffffffff161415610e6b577f63a04625ee50186097257e079ace9a312982f1976bdffa769db82a83c2ffc0063383604051808373ffffffffffffffffffffffffffffffffffffffff1673ffffffffffffffffffffffffffffffffffffffff1681526020018273ffffffffffffffffffffffffffffffffffffffff1673ffffffffffffffffffffffffffffffffffffffff168152602001806020018281038252601e8152602001807f52656665727265722063616e6e6f742062652030783020616464726573730000815250602001935050505060405180910390a1600090506112a7565b610e758233611866565b15610f79577f63a04625ee50186097257e079ace9a312982f1976bdffa769db82a83c2ffc0063383604051808373ffffffffffffffffffffffffffffffffffffffff1673ffffffffffffffffffffffffffffffffffffffff1681526020018273ffffffffffffffffffffffffffffffffffffffff1673ffffffffffffffffffffffffffffffffffffffff16815260200180602001828103825260298152602001807f526566657265652063616e6e6f74206265206f6e65206f66207265666572726581526020017f722075706c696e65730000000000000000000000000000000000000000000000815250604001935050505060405180910390a1600090506112a7565b600073ffffffffffffffffffffffffffffffffffffffff16600160003373ffffffffffffffffffffffffffffffffffffffff1673ffffffffffffffffffffffffffffffffffffffff16815260200190815260200160002060000160009054906101000a900473ffffffffffffffffffffffffffffffffffffffff1673ffffffffffffffffffffffffffffffffffffffff16141515611110577f63a04625ee50186097257e079ace9a312982f1976bdffa769db82a83c2ffc0063383604051808373ffffffffffffffffffffffffffffffffffffffff1673ffffffffffffffffffffffffffffffffffffffff1681526020018273ffffffffffffffffffffffffffffffffffffffff1673ffffffffffffffffffffffffffffffffffffffff16815260200180602001828103825260238152602001807f416464726573732068617665206265656e20726567697374657265642075706c81526020017f696e650000000000000000000000000000000000000000000000000000000000815250604001935050505060405180910390a1600090506112a7565b6000600160003373ffffffffffffffffffffffffffffffffffffffff1673ffffffffffffffffffffffffffffffffffffffff16815260200190815260200160002090506000600160008573ffffffffffffffffffffffffffffffffffffffff1673ffffffffffffffffffffffffffffffffffffffff1681526020019081526020016000209050838260000160006101000a81548173ffffffffffffffffffffffffffffffffffffffff021916908373ffffffffffffffffffffffffffffffffffffffff1602179055506111e1610986565b82600301819055506112016001826002015461197490919063ffffffff16565b81600201819055507ffaf63637882ff2d63ca76881cf92fb857130e36f350c926f9cc884b499b42b773385604051808373ffffffffffffffffffffffffffffffffffffffff1673ffffffffffffffffffffffffffffffffffffffff1681526020018273ffffffffffffffffffffffffffffffffffffffff1673ffffffffffffffffffffffffffffffffffffffff1681526020019250505060405180910390a16001925050505b919050565b60006112b6611c20565b600160003373ffffffffffffffffffffffffffffffffffffffff1673ffffffffffffffffffffffffffffffffffffffff168152602001908152602001600020608060405190810160405290816000820160009054906101000a900473ffffffffffffffffffffffffffffffffffffffff1673ffffffffffffffffffffffffffffffffffffffff1673ffffffffffffffffffffffffffffffffffffffff168152602001600182015481526020016002820154815260200160038201548152505090506000805b6002805490508110156116c957600083600001519050600060016000866000015173ffffffffffffffffffffffffffffffffffffffff1673ffffffffffffffffffffffffffffffffffffffff1681526020019081526020016000209050600073ffffffffffffffffffffffffffffffffffffffff168273ffffffffffffffffffffffffffffffffffffffff1614156114145750506116c9565b600660009054906101000a900460ff16801561144f5750611433610986565b61144c600554836003015461197490919063ffffffff16565b10155b806114675750600660009054906101000a900460ff16155b156116375760006114976004546114896003548b6119fe90919063ffffffff16565b611acb90919063ffffffff16565b90506114d96004546114cb6002878154811015156114b157fe5b9060005260206000200154846119fe90919063ffffffff16565b611acb90919063ffffffff16565b905061150e6004546115006114f18560020154610b19565b846119fe90919063ffffffff16565b611acb90919063ffffffff16565b9050611523818661197490919063ffffffff16565b945061153c81836001015461197490919063ffffffff16565b82600101819055508273ffffffffffffffffffffffffffffffffffffffff166108fc829081150290604051600060405180830381858888f1935050505015801561158a573d6000803e3d6000fd5b507f3eb64e24c53fdbac5e2f9a92ef0865a35f6777db50dd26bc5d3f813e7ec44d0533848360018801604051808573ffffffffffffffffffffffffffffffffffffffff1673ffffffffffffffffffffffffffffffffffffffff1681526020018473ffffffffffffffffffffffffffffffffffffffff1673ffffffffffffffffffffffffffffffffffffffff16815260200183815260200182815260200194505050505060405180910390a1505b80608060405190810160405290816000820160009054906101000a900473ffffffffffffffffffffffffffffffffffffffff1673ffffffffffffffffffffffffffffffffffffffff1673ffffffffffffffffffffffffffffffffffffffff168152602001600182015481526020016002820154815260200160038201548152505094505050808060010191505061137b565b506116d333611b5e565b8092505050919050565b600073ffffffffffffffffffffffffffffffffffffffff168173ffffffffffffffffffffffffffffffffffffffff16141515156117a8576040517f08c379a00000000000000000000000000000000000000000000000000000000081526004018080602001828103825260268152602001807f4f776e61626c653a206e6577206f776e657220697320746865207a65726f206181526020017f646472657373000000000000000000000000000000000000000000000000000081525060400191505060405180910390fd5b8073ffffffffffffffffffffffffffffffffffffffff166000809054906101000a900473ffffffffffffffffffffffffffffffffffffffff1673ffffffffffffffffffffffffffffffffffffffff167f8be0079c531659141344cd1fd0a4f28419497f9722a3daafe3b4186f6b6457e060405160405180910390a3806000806101000a81548173ffffffffffffffffffffffffffffffffffffffff021916908373ffffffffffffffffffffffffffffffffffffffff16021790555050565b60008083905060005b60028054905081101561196757600073ffffffffffffffffffffffffffffffffffffffff168273ffffffffffffffffffffffffffffffffffffffff1614156118b657611967565b8373ffffffffffffffffffffffffffffffffffffffff168273ffffffffffffffffffffffffffffffffffffffff1614156118f55760019250505061196e565b600160008373ffffffffffffffffffffffffffffffffffffffff1673ffffffffffffffffffffffffffffffffffffffff16815260200190815260200160002060000160009054906101000a900473ffffffffffffffffffffffffffffffffffffffff169150808060010191505061186f565b5060009150505b92915050565b60008082840190508381101515156119f4576040517f08c379a000000000000000000000000000000000000000000000000000000000815260040180806020018281038252601b8152602001807f536166654d6174683a206164646974696f6e206f766572666c6f77000000000081525060200191505060405180910390fd5b8091505092915050565b600080831415611a115760009050611ac5565b60008284029050828482811515611a2457fe5b04141515611ac0576040517f08c379a00000000000000000000000000000000000000000000000000000000081526004018080602001828103825260218152602001807f536166654d6174683a206d756c7469706c69636174696f6e206f766572666c6f81526020017f770000000000000000000000000000000000000000000000000000000000000081525060400191505060405180910390fd5b809150505b92915050565b60008082111515611b44576040517f08c379a000000000000000000000000000000000000000000000000000000000815260040180806020018281038252601a8152602001807f536166654d6174683a206469766973696f6e206279207a65726f00000000000081525060200191505060405180910390fd5b60008284811515611b5157fe5b0490508091505092915050565b6000611b68610986565b905080600160008473ffffffffffffffffffffffffffffffffffffffff1673ffffffffffffffffffffffffffffffffffffffff168152602001908152602001600020600301819055507f0186c8486ec4ff89359fec8af5f6a89cbdbaa26a8e9fe4bb2f15eb86b8513cb88282604051808373ffffffffffffffffffffffffffffffffffffffff1673ffffffffffffffffffffffffffffffffffffffff1681526020018281526020019250505060405180910390a15050565b608060405190810160405280600073ffffffffffffffffffffffffffffffffffffffff168152602001600081526020016000815260200160008152509056fea165627a7a72305820a274d6fa98446a9237e083afea07ddc7945c7e1224a3fa521365e3a2f626c6720029",
  "source": "pragma solidity 0.5.0;\n\nimport '@thundercore/referral-solidity/contracts/Referral.sol';\nimport \"openzeppelin-solidity/contracts/ownership/Ownable.sol\";\n\ncontract DoubleOrNothing is Ownable, Referral {\n  event BetSettled(address player, uint256 winnings);\n\n  constructor(\n    uint _decimals,\n    uint _referralBonus,\n    uint _secondsUntilInactive,\n    bool _onlyRewardActiveReferrers,\n    uint256[] memory _levelRate,\n    uint256[] memory _refereeBonusRateMap\n  ) Referral(\n      _decimals,\n      _referralBonus,\n      _secondsUntilInactive,\n      _onlyRewardActiveReferrers,\n      _levelRate,\n      _refereeBonusRateMap\n  ) public {}\n\n  function() external payable {}\n\n  function bet(address payable _referrer) payable external {\n    if(!hasReferrer(msg.sender)) {\n      addReferrer(_referrer);\n    }\n    bet();\n  }\n\n  function bet() payable public {\n    // msg.value is added to the balance to begin with so you need to double it\n    require(msg.value * 2 <= address(this).balance, 'Balance too low!');\n    uint256 winnings = 0;\n\n    // DO NOT USE THIS IN PRODUCTION, IT IS INSECURE\n    if(uint256(blockhash(block.number -1)) % 2 == 0) {\n      // 3% is deducted to cover the referral bonus\n      winnings = msg.value * 197/100;\n      address(msg.sender).transfer(winnings);\n    }\n    payReferral(msg.value);\n    emit BetSettled(msg.sender, winnings);\n  }\n\n  function withdraw(uint256 _amount) external onlyOwner {\n    require(_amount <= address(this).balance, 'Balance too low!');\n    address(msg.sender).transfer(_amount);\n  }\n\n}\n",
  "sourcePath": "/Users/yjiang/git/test/DoubleOrNothing/smart-contracts/contracts/DoubleOrNothing.sol",
  "compiler": {
    "name": "solc",
    "version": "0.5.0+commit.1d4f565a.Emscripten.clang"
  },
  "schemaVersion": "3.0.11",
  "updatedAt": "2019-07-15T17:47:42.297Z",
  "devdoc": {
    "methods": {
      "getRefereeBonusRate(uint256)": {
        "details": "Given a user amount to calc in which rate period",
        "params": {
          "amount": "The number of referrees"
        }
      },
      "getTime()": {
        "details": "Get block timestamp with function for testing mock"
      },
      "hasReferrer(address)": {
        "details": "Utils function for check whether an address has the referrer"
      },
      "isOwner()": {
        "details": "Returns true if the caller is the current owner."
      },
      "owner()": {
        "details": "Returns the address of the current owner."
      },
      "renounceOwnership()": {
        "details": "Leaves the contract without owner. It will not be possible to call `onlyOwner` functions anymore. Can only be called by the current owner.     * > Note: Renouncing ownership will leave the contract without an owner, thereby removing any functionality that is only available to the owner."
      },
      "transferOwnership(address)": {
        "details": "Transfers ownership of the contract to a new account (`newOwner`). Can only be called by the current owner."
      }
    }
  },
  "userdoc": {
    "methods": {}
  }
}