{
  "contractName": "Referral",
  "abi": [
    {
      "constant": true,
      "inputs": [],
      "name": "onlyRewardActiveReferrers",
      "outputs": [
        {
          "name": "",
          "type": "bool"
        }
      ],
      "payable": false,
      "stateMutability": "view",
      "type": "function"
    },
    {
      "constant": true,
      "inputs": [],
      "name": "decimals",
      "outputs": [
        {
          "name": "",
          "type": "uint256"
        }
      ],
      "payable": false,
      "stateMutability": "view",
      "type": "function"
    },
    {
      "constant": true,
      "inputs": [],
      "name": "secondsUntilInactive",
      "outputs": [
        {
          "name": "",
          "type": "uint256"
        }
      ],
      "payable": false,
      "stateMutability": "view",
      "type": "function"
    },
    {
      "constant": true,
      "inputs": [
        {
          "name": "",
          "type": "uint256"
        }
      ],
      "name": "refereeBonusRateMap",
      "outputs": [
        {
          "name": "lowerBound",
          "type": "uint256"
        },
        {
          "name": "rate",
          "type": "uint256"
        }
      ],
      "payable": false,
      "stateMutability": "view",
      "type": "function"
    },
    {
      "constant": true,
      "inputs": [
        {
          "name": "",
          "type": "address"
        }
      ],
      "name": "accounts",
      "outputs": [
        {
          "name": "referrer",
          "type": "address"
        },
        {
          "name": "reward",
          "type": "uint256"
        },
        {
          "name": "referredCount",
          "type": "uint256"
        },
        {
          "name": "lastActiveTimestamp",
          "type": "uint256"
        }
      ],
      "payable": false,
      "stateMutability": "view",
      "type": "function"
    },
    {
      "constant": false,
      "inputs": [],
      "name": "renounceOwnership",
      "outputs": [],
      "payable": false,
      "stateMutability": "nonpayable",
      "type": "function"
    },
    {
      "constant": true,
      "inputs": [],
      "name": "owner",
      "outputs": [
        {
          "name": "",
          "type": "address"
        }
      ],
      "payable": false,
      "stateMutability": "view",
      "type": "function"
    },
    {
      "constant": true,
      "inputs": [],
      "name": "isOwner",
      "outputs": [
        {
          "name": "",
          "type": "bool"
        }
      ],
      "payable": false,
      "stateMutability": "view",
      "type": "function"
    },
    {
      "constant": true,
      "inputs": [],
      "name": "referralBonus",
      "outputs": [
        {
          "name": "",
          "type": "uint256"
        }
      ],
      "payable": false,
      "stateMutability": "view",
      "type": "function"
    },
    {
      "constant": true,
      "inputs": [
        {
          "name": "",
          "type": "uint256"
        }
      ],
      "name": "levelRate",
      "outputs": [
        {
          "name": "",
          "type": "uint256"
        }
      ],
      "payable": false,
      "stateMutability": "view",
      "type": "function"
    },
    {
      "constant": false,
      "inputs": [
        {
          "name": "newOwner",
          "type": "address"
        }
      ],
      "name": "transferOwnership",
      "outputs": [],
      "payable": false,
      "stateMutability": "nonpayable",
      "type": "function"
    },
    {
      "inputs": [
        {
          "name": "_levelRate",
          "type": "uint256[]"
        },
        {
          "name": "_referralBonus",
          "type": "uint256"
        },
        {
          "name": "_decimals",
          "type": "uint256"
        },
        {
          "name": "_secondsUntilInactive",
          "type": "uint256"
        },
        {
          "name": "_onlyRewardActiveReferrers",
          "type": "bool"
        },
        {
          "name": "_refereeBonusRateMap",
          "type": "uint256[]"
        }
      ],
      "payable": false,
      "stateMutability": "nonpayable",
      "type": "constructor"
    },
    {
      "anonymous": false,
      "inputs": [
        {
          "indexed": false,
          "name": "referee",
          "type": "address"
        },
        {
          "indexed": false,
          "name": "referrer",
          "type": "address"
        }
      ],
      "name": "RegisteredReferer",
      "type": "event"
    },
    {
      "anonymous": false,
      "inputs": [
        {
          "indexed": false,
          "name": "to",
          "type": "address"
        },
        {
          "indexed": false,
          "name": "amount",
          "type": "uint256"
        },
        {
          "indexed": false,
          "name": "level",
          "type": "uint256"
        }
      ],
      "name": "PaidReferral",
      "type": "event"
    },
    {
      "anonymous": false,
      "inputs": [
        {
          "indexed": false,
          "name": "user",
          "type": "address"
        },
        {
          "indexed": false,
          "name": "timestamp",
          "type": "uint256"
        }
      ],
      "name": "UpdatedUserLastActiveTime",
      "type": "event"
    },
    {
      "anonymous": false,
      "inputs": [
        {
          "indexed": true,
          "name": "previousOwner",
          "type": "address"
        },
        {
          "indexed": true,
          "name": "newOwner",
          "type": "address"
        }
      ],
      "name": "OwnershipTransferred",
      "type": "event"
    },
    {
      "constant": true,
      "inputs": [
        {
          "name": "data",
          "type": "uint256[]"
        }
      ],
      "name": "sum",
      "outputs": [
        {
          "name": "",
          "type": "uint256"
        }
      ],
      "payable": false,
      "stateMutability": "pure",
      "type": "function"
    },
    {
      "constant": true,
      "inputs": [
        {
          "name": "addr",
          "type": "address"
        }
      ],
      "name": "hasReferrer",
      "outputs": [
        {
          "name": "",
          "type": "bool"
        }
      ],
      "payable": false,
      "stateMutability": "view",
      "type": "function"
    },
    {
      "constant": true,
      "inputs": [],
      "name": "getTime",
      "outputs": [
        {
          "name": "",
          "type": "uint256"
        }
      ],
      "payable": false,
      "stateMutability": "view",
      "type": "function"
    },
    {
      "constant": true,
      "inputs": [
        {
          "name": "amount",
          "type": "uint256"
        }
      ],
      "name": "getRefereeBonusRate",
      "outputs": [
        {
          "name": "",
          "type": "uint256"
        }
      ],
      "payable": false,
      "stateMutability": "view",
      "type": "function"
    },
    {
      "constant": false,
      "inputs": [
        {
          "name": "referrer",
          "type": "address"
        }
      ],
      "name": "addReferrer",
      "outputs": [],
      "payable": false,
      "stateMutability": "nonpayable",
      "type": "function"
    },
    {
      "constant": false,
      "inputs": [
        {
          "name": "_secondsUntilInactive",
          "type": "uint256"
        }
      ],
      "name": "setSecondsUntilInactive",
      "outputs": [],
      "payable": false,
      "stateMutability": "nonpayable",
      "type": "function"
    },
    {
      "constant": false,
      "inputs": [
        {
          "name": "_onlyRewardActiveReferrers",
          "type": "bool"
        }
      ],
      "name": "setOnlyRewardAActiveReferrers",
      "outputs": [],
      "payable": false,
      "stateMutability": "nonpayable",
      "type": "function"
    }
  ],
  "bytecode": "0x60806040523480156200001157600080fd5b506040516200192738038062001927833981018060405260c08110156200003757600080fd5b8101908080516401000000008111156200005057600080fd5b828101905060208101848111156200006757600080fd5b81518560208202830111640100000000821117156200008557600080fd5b5050929190602001805190602001909291908051906020019092919080519060200190929190805190602001909291908051640100000000811115620000ca57600080fd5b82810190506020810184811115620000e157600080fd5b8151856020820283011164010000000082111715620000ff57600080fd5b5050929190505050336000806101000a81548173ffffffffffffffffffffffffffffffffffffffff021916908373ffffffffffffffffffffffffffffffffffffffff1602179055506000809054906101000a900473ffffffffffffffffffffffffffffffffffffffff1673ffffffffffffffffffffffffffffffffffffffff16600073ffffffffffffffffffffffffffffffffffffffff167f8be0079c531659141344cd1fd0a4f28419497f9722a3daafe3b4186f6b6457e060405160405180910390a36000865111151562000263576040517f08c379a00000000000000000000000000000000000000000000000000000000081526004018080602001828103825260258152602001807f526566657272616c206c6576656c2073686f756c64206265206174206c65617381526020017f74206f6e6500000000000000000000000000000000000000000000000000000081525060400191505060405180910390fd5b600360ff1686511115151562000307576040517f08c379a00000000000000000000000000000000000000000000000000000000081526004018080602001828103825260218152602001807f4578636565646564206d617820726566657272616c206c6576656c206465707481526020017f680000000000000000000000000000000000000000000000000000000000000081525060400191505060405180910390fd5b6000600282518115156200031757fe5b06141515620003da576040517f08c379a00000000000000000000000000000000000000000000000000000000081526004018080602001828103825260418152602001807f5265666572656520426f6e75732052617465204d61702073686f756c6420626581526020017f2070617373206173205b3c616d6f756e743e2c203c726174653e2c202e2e2e2e81526020017f5d0000000000000000000000000000000000000000000000000000000000000081525060600191505060405180910390fd5b600360ff1660028251811515620003ed57fe5b04111515156200048b576040517f08c379a00000000000000000000000000000000000000000000000000000000081526004018080602001828103825260278152602001807f4578636565646564206d617820726566657272656520626f6e7573206c65766581526020017f6c2064657074680000000000000000000000000000000000000000000000000081525060400191505060405180910390fd5b83851115151562000504576040517f08c379a000000000000000000000000000000000000000000000000000000000815260040180806020018281038252601f8152602001807f526566657272616c20626f6e757320697320657863656564656420313030250081525060200191505060405180910390fd5b836200051f8762000690640100000000026401000000009004565b1115151562000596576040517f08c379a000000000000000000000000000000000000000000000000000000000815260040180806020018281038252601e8152602001807f546f74616c206c6576656c20726174652065786365656465642031303025000081525060200191505060405180910390fd5b84600381905550836004819055508560029080519060200190620005bc929190620006d5565b508260058190555081600660006101000a81548160ff02191690831515021790555060005b815181101562000683576007604080519081016040528084848151811015156200060757fe5b90602001906020020151815260200184600185018151811015156200062857fe5b90602001906020020151815250908060018154018082558091505090600182039060005260206000209060020201600090919290919091506000820151816000015560208201518160010155505050600281019050620005e1565b505050505050506200074f565b60008060005b8351811015620006cb578381815181101515620006af57fe5b9060200190602002015182019150808060010191505062000696565b5080915050919050565b82805482825590600052602060002090810192821562000714579160200282015b8281111562000713578251825591602001919060010190620006f6565b5b50905062000723919062000727565b5090565b6200074c91905b80821115620007485760008160009055506001016200072e565b5090565b90565b6111c8806200075f6000396000f3fe6080604052600436106100fc576000357c0100000000000000000000000000000000000000000000000000000000900463ffffffff1680630194db8e1461010157806318452cd8146101da5780632ee7754d14610243578063313ce567146102725780633a8e7bdc1461029d578063447e78f5146102c85780634b7f8ba414610303578063557ed1ba146103595780635e5c06e214610384578063715018a61461042a57806387892629146104415780638da5cb5b146104905780638f32d59b146104e7578063ce7842f514610516578063db1058a914610541578063dc12365f1461057e578063f2fde38b146105cd578063fefa9bb11461061e575b600080fd5b34801561010d57600080fd5b506101c46004803603602081101561012457600080fd5b810190808035906020019064010000000081111561014157600080fd5b82018360208201111561015357600080fd5b8035906020019184602083028401116401000000008311171561017557600080fd5b919080806020026020016040519081016040528093929190818152602001838360200280828437600081840152601f19601f82011690508083019250505050505050919291929050505061066f565b6040518082815260200191505060405180910390f35b3480156101e657600080fd5b50610229600480360360208110156101fd57600080fd5b81019080803573ffffffffffffffffffffffffffffffffffffffff1690602001909291905050506106b1565b604051808215151515815260200191505060405180910390f35b34801561024f57600080fd5b5061025861074c565b604051808215151515815260200191505060405180910390f35b34801561027e57600080fd5b5061028761075f565b6040518082815260200191505060405180910390f35b3480156102a957600080fd5b506102b2610765565b6040518082815260200191505060405180910390f35b3480156102d457600080fd5b50610301600480360360208110156102eb57600080fd5b810190808035906020019092919050505061076b565b005b34801561030f57600080fd5b5061033c6004803603602081101561032657600080fd5b81019080803590602001909291905050506107f1565b604051808381526020018281526020019250505060405180910390f35b34801561036557600080fd5b5061036e610824565b6040518082815260200191505060405180910390f35b34801561039057600080fd5b506103d3600480360360208110156103a757600080fd5b81019080803573ffffffffffffffffffffffffffffffffffffffff16906020019092919050505061082c565b604051808573ffffffffffffffffffffffffffffffffffffffff1673ffffffffffffffffffffffffffffffffffffffff16815260200184815260200183815260200182815260200194505050505060405180910390f35b34801561043657600080fd5b5061043f61087c565b005b34801561044d57600080fd5b5061047a6004803603602081101561046457600080fd5b81019080803590602001909291905050506109b7565b6040518082815260200191505060405180910390f35b34801561049c57600080fd5b506104a5610a59565b604051808273ffffffffffffffffffffffffffffffffffffffff1673ffffffffffffffffffffffffffffffffffffffff16815260200191505060405180910390f35b3480156104f357600080fd5b506104fc610a82565b604051808215151515815260200191505060405180910390f35b34801561052257600080fd5b5061052b610ad9565b6040518082815260200191505060405180910390f35b34801561054d57600080fd5b5061057c6004803603602081101561056457600080fd5b81019080803515159060200190929190505050610adf565b005b34801561058a57600080fd5b506105b7600480360360208110156105a157600080fd5b8101908080359060200190929190505050610b78565b6040518082815260200191505060405180910390f35b3480156105d957600080fd5b5061061c600480360360208110156105f057600080fd5b81019080803573ffffffffffffffffffffffffffffffffffffffff169060200190929190505050610b9b565b005b34801561062a57600080fd5b5061066d6004803603602081101561064157600080fd5b81019080803573ffffffffffffffffffffffffffffffffffffffff169060200190929190505050610c23565b005b60008060005b83518110156106a757838181518110151561068c57fe5b90602001906020020151820191508080600101915050610675565b5080915050919050565b60008073ffffffffffffffffffffffffffffffffffffffff16600160008473ffffffffffffffffffffffffffffffffffffffff1673ffffffffffffffffffffffffffffffffffffffff16815260200190815260200160002060000160009054906101000a900473ffffffffffffffffffffffffffffffffffffffff1673ffffffffffffffffffffffffffffffffffffffff1614159050919050565b600660009054906101000a900460ff1681565b60045481565b60055481565b610773610a82565b15156107e7576040517f08c379a00000000000000000000000000000000000000000000000000000000081526004018080602001828103825260208152602001807f4f776e61626c653a2063616c6c6572206973206e6f7420746865206f776e657281525060200191505060405180910390fd5b8060058190555050565b60078181548110151561080057fe5b90600052602060002090600202016000915090508060000154908060010154905082565b600042905090565b60016020528060005260406000206000915090508060000160009054906101000a900473ffffffffffffffffffffffffffffffffffffffff16908060010154908060020154908060030154905084565b610884610a82565b15156108f8576040517f08c379a00000000000000000000000000000000000000000000000000000000081526004018080602001828103825260208152602001807f4f776e61626c653a2063616c6c6572206973206e6f7420746865206f776e657281525060200191505060405180910390fd5b600073ffffffffffffffffffffffffffffffffffffffff166000809054906101000a900473ffffffffffffffffffffffffffffffffffffffff1673ffffffffffffffffffffffffffffffffffffffff167f8be0079c531659141344cd1fd0a4f28419497f9722a3daafe3b4186f6b6457e060405160405180910390a360008060006101000a81548173ffffffffffffffffffffffffffffffffffffffff021916908373ffffffffffffffffffffffffffffffffffffffff160217905550565b600080600760008154811015156109ca57fe5b90600052602060002090600202016001015490506000600190505b600780549050811015610a4f57600781815481101515610a0157fe5b906000526020600020906002020160000154841015610a1f57610a4f565b600781815481101515610a2e57fe5b906000526020600020906002020160010154915080806001019150506109e5565b5080915050919050565b60008060009054906101000a900473ffffffffffffffffffffffffffffffffffffffff16905090565b60008060009054906101000a900473ffffffffffffffffffffffffffffffffffffffff1673ffffffffffffffffffffffffffffffffffffffff163373ffffffffffffffffffffffffffffffffffffffff1614905090565b60035481565b610ae7610a82565b1515610b5b576040517f08c379a00000000000000000000000000000000000000000000000000000000081526004018080602001828103825260208152602001807f4f776e61626c653a2063616c6c6572206973206e6f7420746865206f776e657281525060200191505060405180910390fd5b80600660006101000a81548160ff02191690831515021790555050565b600281815481101515610b8757fe5b906000526020600020016000915090505481565b610ba3610a82565b1515610c17576040517f08c379a00000000000000000000000000000000000000000000000000000000081526004018080602001828103825260208152602001807f4f776e61626c653a2063616c6c6572206973206e6f7420746865206f776e657281525060200191505060405180910390fd5b610c2081610f89565b50565b600073ffffffffffffffffffffffffffffffffffffffff168173ffffffffffffffffffffffffffffffffffffffff1614151515610cc8576040517f08c379a000000000000000000000000000000000000000000000000000000000815260040180806020018281038252601e8152602001807f52656665727265722063616e6e6f74206265203078302061646472657373000081525060200191505060405180910390fd5b600073ffffffffffffffffffffffffffffffffffffffff16600160003373ffffffffffffffffffffffffffffffffffffffff1673ffffffffffffffffffffffffffffffffffffffff16815260200190815260200160002060000160009054906101000a900473ffffffffffffffffffffffffffffffffffffffff1673ffffffffffffffffffffffffffffffffffffffff16141515610df4576040517f08c379a00000000000000000000000000000000000000000000000000000000081526004018080602001828103825260238152602001807f416464726573732068617665206265656e20726567697374657265642075706c81526020017f696e65000000000000000000000000000000000000000000000000000000000081525060400191505060405180910390fd5b6000600160003373ffffffffffffffffffffffffffffffffffffffff1673ffffffffffffffffffffffffffffffffffffffff16815260200190815260200160002090506000600160008473ffffffffffffffffffffffffffffffffffffffff1673ffffffffffffffffffffffffffffffffffffffff1681526020019081526020016000209050828260000160006101000a81548173ffffffffffffffffffffffffffffffffffffffff021916908373ffffffffffffffffffffffffffffffffffffffff160217905550610ec5610824565b8260030181905550610ee56001826002015461111290919063ffffffff16565b81600201819055507ffaf63637882ff2d63ca76881cf92fb857130e36f350c926f9cc884b499b42b773384604051808373ffffffffffffffffffffffffffffffffffffffff1673ffffffffffffffffffffffffffffffffffffffff1681526020018273ffffffffffffffffffffffffffffffffffffffff1673ffffffffffffffffffffffffffffffffffffffff1681526020019250505060405180910390a1505050565b600073ffffffffffffffffffffffffffffffffffffffff168173ffffffffffffffffffffffffffffffffffffffff1614151515611054576040517f08c379a00000000000000000000000000000000000000000000000000000000081526004018080602001828103825260268152602001807f4f776e61626c653a206e6577206f776e657220697320746865207a65726f206181526020017f646472657373000000000000000000000000000000000000000000000000000081525060400191505060405180910390fd5b8073ffffffffffffffffffffffffffffffffffffffff166000809054906101000a900473ffffffffffffffffffffffffffffffffffffffff1673ffffffffffffffffffffffffffffffffffffffff167f8be0079c531659141344cd1fd0a4f28419497f9722a3daafe3b4186f6b6457e060405160405180910390a3806000806101000a81548173ffffffffffffffffffffffffffffffffffffffff021916908373ffffffffffffffffffffffffffffffffffffffff16021790555050565b6000808284019050838110151515611192576040517f08c379a000000000000000000000000000000000000000000000000000000000815260040180806020018281038252601b8152602001807f536166654d6174683a206164646974696f6e206f766572666c6f77000000000081525060200191505060405180910390fd5b809150509291505056fea165627a7a72305820bffb653497a2bb5eca714f4a0fafa663e31c5a6f035594c73e0e28fc75ac1fdf0029",
  "source": "pragma solidity ^0.5.0;\n\nimport \"openzeppelin-solidity/contracts/math/SafeMath.sol\";\nimport \"openzeppelin-solidity/contracts/ownership/Ownable.sol\";\n\ncontract Referral is Ownable {\n  using SafeMath for uint;\n\n  uint8 constant MAX_REFER_DEPTH = 3;\n  uint8 constant MAX_REFEREE_BONUS_LEVEL = 3;\n\n  struct Account {\n    address payable referrer;\n    uint reward;\n    uint referredCount;\n    uint lastActiveTimestamp;\n  }\n\n  struct RefereeBonusRate {\n    uint lowerBound;\n    uint rate;\n  }\n\n  event RegisteredReferer(address referee, address referrer);\n  event PaidReferral(address to, uint amount, uint level);\n  event UpdatedUserLastActiveTime(address user, uint timestamp);\n\n  mapping(address => Account) public accounts;\n\n  uint256[] public levelRate;\n  uint256 public referralBonus;\n  uint256 public decimals;\n  uint256 public secondsUntilInactive;\n  bool public onlyRewardActiveReferrers;\n  RefereeBonusRate[] public refereeBonusRateMap;\n\n  constructor(\n    uint256[] memory _levelRate,\n    uint _referralBonus,\n    uint _decimals,\n    uint _secondsUntilInactive,\n    bool _onlyRewardActiveReferrers,\n    uint256[] memory _refereeBonusRateMap\n  )\n    public\n  {\n    require (_levelRate.length > 0, \"Referral level should be at least one\");\n    require (_levelRate.length <= MAX_REFER_DEPTH, \"Exceeded max referral level depth\");\n    require(_refereeBonusRateMap.length % 2 == 0, \"Referee Bonus Rate Map should be pass as [<amount>, <rate>, ....]\");\n    require(_refereeBonusRateMap.length / 2 <= MAX_REFEREE_BONUS_LEVEL, \"Exceeded max referree bonus level depth\");\n    require (_referralBonus <= _decimals, \"Referral bonus is exceeded 100%\");\n    require (sum(_levelRate) <= _decimals, \"Total level rate exceeded 100%\");\n\n    referralBonus = _referralBonus;\n    decimals = _decimals;\n    levelRate = _levelRate;\n    secondsUntilInactive = _secondsUntilInactive;\n    onlyRewardActiveReferrers = _onlyRewardActiveReferrers;\n\n    // Cause we can't pass struct or nested array without enabling experimental ABIEncoderV2, use array to simulate it\n    for (uint i; i < _refereeBonusRateMap.length; i += 2) {\n      refereeBonusRateMap.push(RefereeBonusRate(_refereeBonusRateMap[i], _refereeBonusRateMap[i+1]));\n    }\n  }\n\n  function sum(uint[] memory data) public pure returns (uint) {\n    uint S;\n    for(uint i;i < data.length;i++) {\n      S += data[i];\n    }\n    return S;\n  }\n\n  function hasReferrer(address addr) public view returns(bool){\n    return accounts[addr].referrer != address(0);\n  }\n\n  function getTime() public view returns(uint256) {\n    return now; // solium-disable-line security/no-block-members\n  }\n\n  function getRefereeBonusRate(uint256 amount) public view returns(uint256) {\n    uint rate = refereeBonusRateMap[0].rate;\n    for(uint i = 1; i < refereeBonusRateMap.length; i++) {\n      if (amount < refereeBonusRateMap[i].lowerBound) {\n        break;\n      }\n      rate = refereeBonusRateMap[i].rate;\n    }\n    return rate;\n  }\n\n  function addReferrer(address payable referrer) public {\n    require(referrer != address(0), \"Referrer cannot be 0x0 address\");\n    require(accounts[msg.sender].referrer == address(0), \"Address have been registered upline\");\n\n    Account storage userAccount = accounts[msg.sender];\n    Account storage parentAccount = accounts[referrer];\n\n    userAccount.referrer = referrer;\n    userAccount.lastActiveTimestamp = getTime();\n    parentAccount.referredCount = parentAccount.referredCount.add(1);\n\n    emit RegisteredReferer(msg.sender, referrer);\n  }\n\n  function payReferral(uint256 value) internal returns(uint256){\n    Account memory userAccount = accounts[msg.sender];\n    uint totalReferal;\n\n    for (uint i; i < levelRate.length; i++) {\n      address payable parent = userAccount.referrer;\n      Account storage parentAccount = accounts[userAccount.referrer];\n\n      if (parent == address(0)) {\n        break;\n      }\n\n      if(onlyRewardActiveReferrers && parentAccount.lastActiveTimestamp.add(secondsUntilInactive) >= getTime() || !onlyRewardActiveReferrers) {\n        uint c = value.mul(referralBonus).div(decimals);\n        c = c.mul(levelRate[i]).div(decimals);\n        c = c.mul(getRefereeBonusRate(parentAccount.referredCount)).div(decimals);\n\n        totalReferal = totalReferal.add(c);\n\n        parent.transfer(c);\n        emit PaidReferral(parent, c, i + 1);\n      }\n\n      userAccount = parentAccount;\n    }\n\n    accounts[msg.sender].lastActiveTimestamp = getTime();\n    return totalReferal;\n  }\n\n  function updateActiveTimestamp(address user) internal {\n    Account storage userAccount = accounts[user];\n    userAccount.lastActiveTimestamp = getTime();\n\n    emit UpdatedUserLastActiveTime(user, userAccount.lastActiveTimestamp);\n  }\n\n  function setSecondsUntilInactive(uint _secondsUntilInactive) public onlyOwner {\n    secondsUntilInactive = _secondsUntilInactive;\n  }\n\n  function setOnlyRewardAActiveReferrers(bool _onlyRewardActiveReferrers) public onlyOwner {\n    onlyRewardActiveReferrers = _onlyRewardActiveReferrers;\n  }\n}\n",
  "sourcePath": "@thundercore/referral-solidity/contracts/Referral.sol",
  "compiler": {
    "name": "solc",
    "version": "0.5.0+commit.1d4f565a.Emscripten.clang"
  },
  "schemaVersion": "3.0.10",
  "updatedAt": "2019-07-04T17:48:36.447Z",
  "devdoc": {
    "methods": {
      "isOwner()": {
        "details": "Returns true if the caller is the current owner."
      },
      "owner()": {
        "details": "Returns the address of the current owner."
      },
      "renounceOwnership()": {
        "details": "Leaves the contract without owner. It will not be possible to call `onlyOwner` functions anymore. Can only be called by the current owner.     * > Note: Renouncing ownership will leave the contract without an owner, thereby removing any functionality that is only available to the owner."
      },
      "transferOwnership(address)": {
        "details": "Transfers ownership of the contract to a new account (`newOwner`). Can only be called by the current owner."
      }
    }
  },
  "userdoc": {
    "methods": {}
  }
}